{
  "contractName": "PrimeNumber",
  "abi": [
    {
      "inputs": [],
      "stateMutability": "nonpayable",
      "type": "constructor"
    },
    {
      "anonymous": false,
      "inputs": [
        {
          "indexed": true,
          "internalType": "address",
          "name": "owner",
          "type": "address"
        },
        {
          "indexed": true,
          "internalType": "address",
          "name": "approved",
          "type": "address"
        },
        {
          "indexed": true,
          "internalType": "uint256",
          "name": "tokenId",
          "type": "uint256"
        }
      ],
      "name": "Approval",
      "type": "event"
    },
    {
      "anonymous": false,
      "inputs": [
        {
          "indexed": true,
          "internalType": "address",
          "name": "owner",
          "type": "address"
        },
        {
          "indexed": true,
          "internalType": "address",
          "name": "operator",
          "type": "address"
        },
        {
          "indexed": false,
          "internalType": "bool",
          "name": "approved",
          "type": "bool"
        }
      ],
      "name": "ApprovalForAll",
      "type": "event"
    },
    {
      "anonymous": false,
      "inputs": [
        {
          "indexed": true,
          "internalType": "address",
          "name": "previousOwner",
          "type": "address"
        },
        {
          "indexed": true,
          "internalType": "address",
          "name": "newOwner",
          "type": "address"
        }
      ],
      "name": "OwnershipTransferred",
      "type": "event"
    },
    {
      "anonymous": false,
      "inputs": [
        {
          "indexed": true,
          "internalType": "address",
          "name": "from",
          "type": "address"
        },
        {
          "indexed": true,
          "internalType": "address",
          "name": "to",
          "type": "address"
        },
        {
          "indexed": true,
          "internalType": "uint256",
          "name": "tokenId",
          "type": "uint256"
        }
      ],
      "name": "Transfer",
      "type": "event"
    },
    {
      "inputs": [
        {
          "internalType": "address",
          "name": "to",
          "type": "address"
        },
        {
          "internalType": "uint256",
          "name": "tokenId",
          "type": "uint256"
        }
      ],
      "name": "approve",
      "outputs": [],
      "stateMutability": "nonpayable",
      "type": "function"
    },
    {
      "inputs": [
        {
          "internalType": "address",
          "name": "owner",
          "type": "address"
        }
      ],
      "name": "balanceOf",
      "outputs": [
        {
          "internalType": "uint256",
          "name": "",
          "type": "uint256"
        }
      ],
      "stateMutability": "view",
      "type": "function",
      "constant": true
    },
    {
      "inputs": [
        {
          "internalType": "uint256",
          "name": "tokenId",
          "type": "uint256"
        }
      ],
      "name": "getApproved",
      "outputs": [
        {
          "internalType": "address",
          "name": "",
          "type": "address"
        }
      ],
      "stateMutability": "view",
      "type": "function",
      "constant": true
    },
    {
      "inputs": [
        {
          "internalType": "address",
          "name": "owner",
          "type": "address"
        },
        {
          "internalType": "address",
          "name": "operator",
          "type": "address"
        }
      ],
      "name": "isApprovedForAll",
      "outputs": [
        {
          "internalType": "bool",
          "name": "",
          "type": "bool"
        }
      ],
      "stateMutability": "view",
      "type": "function",
      "constant": true
    },
    {
      "inputs": [],
      "name": "name",
      "outputs": [
        {
          "internalType": "string",
          "name": "",
          "type": "string"
        }
      ],
      "stateMutability": "view",
      "type": "function",
      "constant": true
    },
    {
      "inputs": [],
      "name": "owner",
      "outputs": [
        {
          "internalType": "address",
          "name": "",
          "type": "address"
        }
      ],
      "stateMutability": "view",
      "type": "function",
      "constant": true
    },
    {
      "inputs": [
        {
          "internalType": "uint256",
          "name": "tokenId",
          "type": "uint256"
        }
      ],
      "name": "ownerOf",
      "outputs": [
        {
          "internalType": "address",
          "name": "",
          "type": "address"
        }
      ],
      "stateMutability": "view",
      "type": "function",
      "constant": true
    },
    {
      "inputs": [],
      "name": "renounceOwnership",
      "outputs": [],
      "stateMutability": "nonpayable",
      "type": "function"
    },
    {
      "inputs": [
        {
          "internalType": "address",
          "name": "from",
          "type": "address"
        },
        {
          "internalType": "address",
          "name": "to",
          "type": "address"
        },
        {
          "internalType": "uint256",
          "name": "tokenId",
          "type": "uint256"
        }
      ],
      "name": "safeTransferFrom",
      "outputs": [],
      "stateMutability": "nonpayable",
      "type": "function"
    },
    {
      "inputs": [
        {
          "internalType": "address",
          "name": "from",
          "type": "address"
        },
        {
          "internalType": "address",
          "name": "to",
          "type": "address"
        },
        {
          "internalType": "uint256",
          "name": "tokenId",
          "type": "uint256"
        },
        {
          "internalType": "bytes",
          "name": "_data",
          "type": "bytes"
        }
      ],
      "name": "safeTransferFrom",
      "outputs": [],
      "stateMutability": "nonpayable",
      "type": "function"
    },
    {
      "inputs": [
        {
          "internalType": "address",
          "name": "operator",
          "type": "address"
        },
        {
          "internalType": "bool",
          "name": "approved",
          "type": "bool"
        }
      ],
      "name": "setApprovalForAll",
      "outputs": [],
      "stateMutability": "nonpayable",
      "type": "function"
    },
    {
      "inputs": [
        {
          "internalType": "bytes4",
          "name": "interfaceId",
          "type": "bytes4"
        }
      ],
      "name": "supportsInterface",
      "outputs": [
        {
          "internalType": "bool",
          "name": "",
          "type": "bool"
        }
      ],
      "stateMutability": "view",
      "type": "function",
      "constant": true
    },
    {
      "inputs": [],
      "name": "symbol",
      "outputs": [
        {
          "internalType": "string",
          "name": "",
          "type": "string"
        }
      ],
      "stateMutability": "view",
      "type": "function",
      "constant": true
    },
    {
      "inputs": [
        {
          "internalType": "uint256",
          "name": "index",
          "type": "uint256"
        }
      ],
      "name": "tokenByIndex",
      "outputs": [
        {
          "internalType": "uint256",
          "name": "",
          "type": "uint256"
        }
      ],
      "stateMutability": "view",
      "type": "function",
      "constant": true
    },
    {
      "inputs": [
        {
          "internalType": "address",
          "name": "owner",
          "type": "address"
        },
        {
          "internalType": "uint256",
          "name": "index",
          "type": "uint256"
        }
      ],
      "name": "tokenOfOwnerByIndex",
      "outputs": [
        {
          "internalType": "uint256",
          "name": "",
          "type": "uint256"
        }
      ],
      "stateMutability": "view",
      "type": "function",
      "constant": true
    },
    {
      "inputs": [],
      "name": "totalSupply",
      "outputs": [
        {
          "internalType": "uint256",
          "name": "",
          "type": "uint256"
        }
      ],
      "stateMutability": "view",
      "type": "function",
      "constant": true
    },
    {
      "inputs": [
        {
          "internalType": "address",
          "name": "from",
          "type": "address"
        },
        {
          "internalType": "address",
          "name": "to",
          "type": "address"
        },
        {
          "internalType": "uint256",
          "name": "tokenId",
          "type": "uint256"
        }
      ],
      "name": "transferFrom",
      "outputs": [],
      "stateMutability": "nonpayable",
      "type": "function"
    },
    {
      "inputs": [
        {
          "internalType": "address",
          "name": "newOwner",
          "type": "address"
        }
      ],
      "name": "transferOwnership",
      "outputs": [],
      "stateMutability": "nonpayable",
      "type": "function"
    },
    {
      "inputs": [],
      "name": "getAllPrimeNumber",
      "outputs": [
        {
          "internalType": "uint256[]",
          "name": "primes",
          "type": "uint256[]"
        }
      ],
      "stateMutability": "view",
      "type": "function",
      "constant": true
    },
    {
      "inputs": [],
      "name": "getNumOfPrimeNumber",
      "outputs": [
        {
          "internalType": "uint256",
          "name": "",
          "type": "uint256"
        }
      ],
      "stateMutability": "view",
      "type": "function",
      "constant": true
    },
    {
      "inputs": [
        {
          "internalType": "uint256",
          "name": "primeNumber",
          "type": "uint256"
        }
      ],
      "name": "claim",
      "outputs": [],
      "stateMutability": "nonpayable",
      "type": "function"
    },
    {
      "inputs": [
        {
          "internalType": "uint256",
          "name": "primeNumber",
          "type": "uint256"
        }
      ],
      "name": "ownerClaim",
      "outputs": [],
      "stateMutability": "nonpayable",
      "type": "function"
    },
    {
      "inputs": [
        {
          "internalType": "uint256",
          "name": "primeNumber",
          "type": "uint256"
        }
      ],
      "name": "tokenURI",
      "outputs": [
        {
          "internalType": "string",
          "name": "",
          "type": "string"
        }
      ],
      "stateMutability": "pure",
      "type": "function",
      "constant": true
    }
  ],
  "bytecode": "0x60806040526096600d553480156200001657600080fd5b50604080518082018252600f8082526e141c9a5b59539d5b58995c931bdbdd608a1b6020808401828152855180870190965292855284015281519192916200006191600091620001e9565b50805162000077906001906020840190620001e9565b50506001600a5550620000936200008d62000193565b62000197565b60005b600d548111620000ce576000818152600c60205260409020805460ff1916600117905580620000c58162000309565b91505062000096565b5060025b600d54811162000156576000818152600c602052604090205460ff161515600114156200014157600062000108826002620002aa565b90505b600d5481116200013f576000818152600c60205260409020805460ff191690556200013782826200028f565b90506200010b565b505b806200014d8162000309565b915050620000d2565b506039600052600c6020527ffa587a69ff2868f708e56f30e58eb07cfce587b7d40951fa6177d9441e037d3d805460ff191660011790556200033d565b3390565b600b80546001600160a01b038381166001600160a01b0319831681179093556040519116919082907f8be0079c531659141344cd1fd0a4f28419497f9722a3daafe3b4186f6b6457e090600090a35050565b828054620001f790620002cc565b90600052602060002090601f0160209004810192826200021b576000855562000266565b82601f106200023657805160ff191683800117855562000266565b8280016001018555821562000266579182015b828111156200026657825182559160200191906001019062000249565b506200027492915062000278565b5090565b5b8082111562000274576000815560010162000279565b60008219821115620002a557620002a562000327565b500190565b6000816000190483118215151615620002c757620002c762000327565b500290565b600281046001821680620002e157607f821691505b602082108114156200030357634e487b7160e01b600052602260045260246000fd5b50919050565b600060001982141562000320576200032062000327565b5060010190565b634e487b7160e01b600052601160045260246000fd5b612759806200034d6000396000f3fe608060405234801561001057600080fd5b506004361061018d5760003560e01c80636352211e116100e3578063a22cb4651161008c578063c87b56dd11610066578063c87b56dd1461030d578063e985e9c514610320578063f2fde38b146103335761018d565b8063a22cb465146102d2578063b88d4fde146102e5578063bb7ed132146102f85761018d565b806383fdad89116100bd57806383fdad89146102ba5780638da5cb5b146102c257806395d89b41146102ca5761018d565b80636352211e1461028c57806370a082311461029f578063715018a6146102b25761018d565b806323b872dd1161014557806342842e0e1161011f57806342842e0e14610253578063434f48c4146102665780634f6ccce7146102795761018d565b806323b872dd1461021a5780632f745c591461022d578063379607f5146102405761018d565b8063081812fc11610176578063081812fc146101d0578063095ea7b3146101f057806318160ddd146102055761018d565b806301ffc9a71461019257806306fdde03146101bb575b600080fd5b6101a56101a0366004611c1b565b610346565b6040516101b29190611ded565b60405180910390f35b6101c361038c565b6040516101b29190611df8565b6101e36101de366004611c53565b61041e565b6040516101b29190611d59565b6102036101fe366004611bf2565b61046a565b005b61020d610502565b6040516101b2919061241f565b610203610228366004611ab1565b610508565b61020d61023b366004611bf2565b610540565b61020361024e366004611c53565b610592565b610203610261366004611ab1565b6105f8565b610203610274366004611c53565b610613565b61020d610287366004611c53565b6106aa565b6101e361029a366004611c53565b610705565b61020d6102ad366004611a5e565b61073a565b61020361077e565b61020d6107c9565b6101e361081a565b6101c3610829565b6102036102e0366004611bb8565b610838565b6102036102f3366004611aec565b610906565b610300610945565b6040516101b29190611da9565b6101c361031b366004611c53565b610a61565b6101a561032e366004611a7f565b610f5e565b610203610341366004611a5e565b610f8c565b60006001600160e01b031982167f780e9d63000000000000000000000000000000000000000000000000000000001480610384575061038482610ffd565b90505b919050565b60606000805461039b90612497565b80601f01602080910402602001604051908101604052809291908181526020018280546103c790612497565b80156104145780601f106103e957610100808354040283529160200191610414565b820191906000526020600020905b8154815290600101906020018083116103f757829003601f168201915b5050505050905090565b60006104298261106f565b61044e5760405162461bcd60e51b8152600401610445906121bc565b60405180910390fd5b506000908152600460205260409020546001600160a01b031690565b600061047582610705565b9050806001600160a01b0316836001600160a01b031614156104a95760405162461bcd60e51b8152600401610445906122d1565b806001600160a01b03166104bb61108c565b6001600160a01b031614806104d757506104d78161032e61108c565b6104f35760405162461bcd60e51b815260040161044590612070565b6104fd8383611090565b505050565b60085490565b61051961051361108c565b8261110b565b6105355760405162461bcd60e51b81526004016104459061232e565b6104fd838383611190565b600061054b8361073a565b82106105695760405162461bcd60e51b815260040161044590611e42565b506001600160a01b03919091166000908152600660209081526040808320938352929052205490565b6002600a5414156105b55760405162461bcd60e51b8152600401610445906123e8565b6002600a556105c3816112ca565b6105df5760405162461bcd60e51b81526004016104459061223d565b6105f06105ea61108c565b8261130e565b506001600a55565b6104fd83838360405180602001604052806000815250610906565b6002600a5414156106365760405162461bcd60e51b8152600401610445906123e8565b6002600a5561064361108c565b6001600160a01b031661065461081a565b6001600160a01b03161461067a5760405162461bcd60e51b815260040161044590612208565b610683816112ca565b61069f5760405162461bcd60e51b81526004016104459061223d565b6105f06105ea61081a565b60006106b4610502565b82106106d25760405162461bcd60e51b81526004016104459061238b565b600882815481106106f357634e487b7160e01b600052603260045260246000fd5b90600052602060002001549050919050565b6000818152600260205260408120546001600160a01b0316806103845760405162461bcd60e51b81526004016104459061212a565b60006001600160a01b0382166107625760405162461bcd60e51b8152600401610445906120cd565b506001600160a01b031660009081526003602052604090205490565b61078661108c565b6001600160a01b031661079761081a565b6001600160a01b0316146107bd5760405162461bcd60e51b815260040161044590612208565b6107c7600061132c565b565b60008060025b600d548111610814576000818152600c602052604090205460ff1615156001141561080257816107fe816124d2565b9250505b8061080c816124d2565b9150506107cf565b50905090565b600b546001600160a01b031690565b60606001805461039b90612497565b61084061108c565b6001600160a01b0316826001600160a01b031614156108715760405162461bcd60e51b815260040161044590611fed565b806005600061087e61108c565b6001600160a01b03908116825260208083019390935260409182016000908120918716808252919093529120805460ff1916921515929092179091556108c261108c565b6001600160a01b03167f17307eab39ab6107e8899845ad3d59bd9653f200f220920489ca2b5937696c31836040516108fa9190611ded565b60405180910390a35050565b61091761091161108c565b8361110b565b6109335760405162461bcd60e51b81526004016104459061232e565b61093f8484848461138b565b50505050565b606061094f61108c565b6001600160a01b031661096061081a565b6001600160a01b0316146109865760405162461bcd60e51b815260040161044590612208565b60006109906107c9565b90508067ffffffffffffffff8111156109b957634e487b7160e01b600052604160045260246000fd5b6040519080825280602002602001820160405280156109e2578160200160208202803683370190505b509150600060025b600d548111610a5b576000818152600c602052604090205460ff16151560011415610a495780848381518110610a3057634e487b7160e01b600052603260045260246000fd5b602090810291909101015281610a45816124d2565b9250505b80610a53816124d2565b9150506109ea565b50505090565b6040805160e08082018352600760a08084018281527f233738464639340000000000000000000000000000000000000000000000000060c080870191909152908552855180870187528381527f233737454546460000000000000000000000000000000000000000000000000060208281019190915280870191909152865180880188528481527f23444246463731000000000000000000000000000000000000000000000000008183015286880152865180880188528481527f234646383242320000000000000000000000000000000000000000000000000081830152606087810191909152875180890189528581527f23464638383536000000000000000000000000000000000000000000000000008184015260808089019190915288518088018a52600a8187019081527f73616e732d7365726966000000000000000000000000000000000000000000008287015281528951808b018b52600581527f736572696600000000000000000000000000000000000000000000000000000081860152818501528951808b018b528781527f637572736976650000000000000000000000000000000000000000000000000081860152818b01528951808b018b529687527f66616e746173790000000000000000000000000000000000000000000000000087850152808301969096528851808a018a52600981527f6d6f6e6f7370616365000000000000000000000000000000000000000000000081850152868201528851968701895260029487018581527f353000000000000000000000000000000000000000000000000000000000000094880185905287528851808a018a52858152808401859052878401528851808a018a528581528084019490945286890193909352875180890189528481527f3430000000000000000000000000000000000000000000000000000000000000818401528682015287518089019098529287527f333000000000000000000000000000000000000000000000000000000000000090870152830194909452906000610d61866113be565b80519091506060808087610d76600186612454565b60058110610d9457634e487b7160e01b600052603260045260246000fd5b6020020151925086610da7600186612454565b60058110610dc557634e487b7160e01b600052603260045260246000fd5b6020020151915085610dd8600186612454565b60058110610df657634e487b7160e01b600052603260045260246000fd5b60200201519050610e05611a1f565b60405180610100016040528060cb815260200161255a60cb9139815260208082018590526040805160a08101909152606a80825290916126ba90830139604080830191909152606082018490528051808201909152600b81527f3b666f6e742d73697a653a000000000000000000000000000000000000000000602082015281600460200201528181600560200201819052506040518060c00160405280609581526020016126256095913960c082015260e0810186905260408051808201909152600d81527f3c2f746578743e3c2f7376673e000000000000000000000000000000000000006020820152816008602090810291909101919091528151828201516040808501516060860151608087015160a088015160c089015160e08a01516101008b0151965160009a610f3e9a99989101611c97565b60408051808303601f190181529190529c9b505050505050505050505050565b6001600160a01b03918216600090815260056020908152604080832093909416825291909152205460ff1690565b610f9461108c565b6001600160a01b0316610fa561081a565b6001600160a01b031614610fcb5760405162461bcd60e51b815260040161044590612208565b6001600160a01b038116610ff15760405162461bcd60e51b815260040161044590611efc565b610ffa8161132c565b50565b60006001600160e01b031982167f80ac58cd00000000000000000000000000000000000000000000000000000000148061106057506001600160e01b031982167f5b5e139f00000000000000000000000000000000000000000000000000000000145b8061038457506103848261150d565b6000908152600260205260409020546001600160a01b0316151590565b3390565b6000818152600460205260409020805473ffffffffffffffffffffffffffffffffffffffff19166001600160a01b03841690811790915581906110d282610705565b6001600160a01b03167f8c5be1e5ebec7d5bd14f71427d1e84f3dd0314c0f7b2291e5b200ac8c7c3b92560405160405180910390a45050565b60006111168261106f565b6111325760405162461bcd60e51b815260040161044590612024565b600061113d83610705565b9050806001600160a01b0316846001600160a01b031614806111785750836001600160a01b031661116d8461041e565b6001600160a01b0316145b8061118857506111888185610f5e565b949350505050565b826001600160a01b03166111a382610705565b6001600160a01b0316146111c95760405162461bcd60e51b815260040161044590612274565b6001600160a01b0382166111ef5760405162461bcd60e51b815260040161044590611f90565b6111fa83838361153f565b611205600082611090565b6001600160a01b038316600090815260036020526040812080546001929061122e908490612454565b90915550506001600160a01b038216600090815260036020526040812080546001929061125c908490612428565b9091555050600081815260026020526040808220805473ffffffffffffffffffffffffffffffffffffffff19166001600160a01b0386811691821790925591518493918716917fddf252ad1be2c89b69c2b068fc378daa952ba7f163c4a11628f55a4df523b3ef91a4505050565b6000600d5482111580156112dc575060015b6112f85760405162461bcd60e51b815260040161044590611e0b565b506000908152600c602052604090205460ff1690565b6113288282604051806020016040528060008152506115c8565b5050565b600b80546001600160a01b0383811673ffffffffffffffffffffffffffffffffffffffff19831681179093556040519116919082907f8be0079c531659141344cd1fd0a4f28419497f9722a3daafe3b4186f6b6457e090600090a35050565b611396848484611190565b6113a2848484846115fb565b61093f5760405162461bcd60e51b815260040161044590611e9f565b6060816113ff575060408051808201909152600181527f30000000000000000000000000000000000000000000000000000000000000006020820152610387565b8160005b81156114295780611413816124d2565b91506114229050600a83612440565b9150611403565b60008167ffffffffffffffff81111561145257634e487b7160e01b600052604160045260246000fd5b6040519080825280601f01601f19166020018201604052801561147c576020820181803683370190505b5090505b841561118857611491600183612454565b915061149e600a866124ed565b6114a9906030612428565b60f81b8183815181106114cc57634e487b7160e01b600052603260045260246000fd5b60200101907effffffffffffffffffffffffffffffffffffffffffffffffffffffffffffff1916908160001a905350611506600a86612440565b9450611480565b6001600160e01b031981167f01ffc9a70000000000000000000000000000000000000000000000000000000014919050565b61154a8383836104fd565b6001600160a01b038316611566576115618161172f565b611589565b816001600160a01b0316836001600160a01b031614611589576115898382611773565b6001600160a01b0382166115a5576115a081611810565b6104fd565b826001600160a01b0316826001600160a01b0316146104fd576104fd82826118e9565b6115d2838361192d565b6115df60008484846115fb565b6104fd5760405162461bcd60e51b815260040161044590611e9f565b600061160f846001600160a01b0316611a19565b1561172457836001600160a01b031663150b7a0261162b61108c565b8786866040518563ffffffff1660e01b815260040161164d9493929190611d6d565b602060405180830381600087803b15801561166757600080fd5b505af1925050508015611697575060408051601f3d908101601f1916820190925261169491810190611c37565b60015b6116f1573d8080156116c5576040519150601f19603f3d011682016040523d82523d6000602084013e6116ca565b606091505b5080516116e95760405162461bcd60e51b815260040161044590611e9f565b805181602001fd5b6001600160e01b0319167f150b7a0200000000000000000000000000000000000000000000000000000000149050611188565b506001949350505050565b600880546000838152600960205260408120829055600182018355919091527ff3f7a9fe364faab93b216da50a3214154f22a0a2b415b23a84c8169e8b636ee30155565b600060016117808461073a565b61178a9190612454565b6000838152600760205260409020549091508082146117dd576001600160a01b03841660009081526006602090815260408083208584528252808320548484528184208190558352600790915290208190555b5060009182526007602090815260408084208490556001600160a01b039094168352600681528383209183525290812055565b60085460009061182290600190612454565b6000838152600960205260408120546008805493945090928490811061185857634e487b7160e01b600052603260045260246000fd5b90600052602060002001549050806008838154811061188757634e487b7160e01b600052603260045260246000fd5b60009182526020808320909101929092558281526009909152604080822084905585825281205560088054806118cd57634e487b7160e01b600052603160045260246000fd5b6001900381819060005260206000200160009055905550505050565b60006118f48361073a565b6001600160a01b039093166000908152600660209081526040808320868452825280832085905593825260079052919091209190915550565b6001600160a01b0382166119535760405162461bcd60e51b815260040161044590612187565b61195c8161106f565b156119795760405162461bcd60e51b815260040161044590611f59565b6119856000838361153f565b6001600160a01b03821660009081526003602052604081208054600192906119ae908490612428565b9091555050600081815260026020526040808220805473ffffffffffffffffffffffffffffffffffffffff19166001600160a01b03861690811790915590518392907fddf252ad1be2c89b69c2b068fc378daa952ba7f163c4a11628f55a4df523b3ef908290a45050565b3b151590565b6040518061012001604052806009905b6060815260200190600190039081611a2f5790505090565b80356001600160a01b038116811461038757600080fd5b600060208284031215611a6f578081fd5b611a7882611a47565b9392505050565b60008060408385031215611a91578081fd5b611a9a83611a47565b9150611aa860208401611a47565b90509250929050565b600080600060608486031215611ac5578081fd5b611ace84611a47565b9250611adc60208501611a47565b9150604084013590509250925092565b60008060008060808587031215611b01578081fd5b611b0a85611a47565b93506020611b19818701611a47565b935060408601359250606086013567ffffffffffffffff80821115611b3c578384fd5b818801915088601f830112611b4f578384fd5b813581811115611b6157611b6161252d565b604051601f8201601f1916810185018381118282101715611b8457611b8461252d565b60405281815283820185018b1015611b9a578586fd5b81858501868301379081019093019390935250939692955090935050565b60008060408385031215611bca578182fd5b611bd383611a47565b915060208301358015158114611be7578182fd5b809150509250929050565b60008060408385031215611c04578182fd5b611c0d83611a47565b946020939093013593505050565b600060208284031215611c2c578081fd5b8135611a7881612543565b600060208284031215611c48578081fd5b8151611a7881612543565b600060208284031215611c64578081fd5b5035919050565b60008151808452611c8381602086016020860161246b565b601f01601f19169290920160200192915050565b60008a51611ca9818460208f0161246b565b8a5190830190611cbd818360208f0161246b565b8a51611ccf8183850160208f0161246b565b8a51929091010190611ce5818360208d0161246b565b8851611cf78183850160208d0161246b565b8851929091010190611d0d818360208b0161246b565b8651611d1f8183850160208b0161246b565b8651929091010190611d3581836020890161246b565b8451611d47818385016020890161246b565b9101019b9a5050505050505050505050565b6001600160a01b0391909116815260200190565b60006001600160a01b03808716835280861660208401525083604083015260806060830152611d9f6080830184611c6b565b9695505050505050565b6020808252825182820181905260009190848201906040850190845b81811015611de157835183529284019291840191600101611dc5565b50909695505050505050565b901515815260200190565b600060208252611a786020830184611c6b565b6020808252601d908201527f54686174206e756d626572206973206e6f7420737570706f727465642e000000604082015260600190565b6020808252602b908201527f455243373231456e756d657261626c653a206f776e657220696e646578206f7560408201527f74206f6620626f756e6473000000000000000000000000000000000000000000606082015260800190565b60208082526032908201527f4552433732313a207472616e7366657220746f206e6f6e20455243373231526560408201527f63656976657220696d706c656d656e7465720000000000000000000000000000606082015260800190565b60208082526026908201527f4f776e61626c653a206e6577206f776e657220697320746865207a65726f206160408201527f6464726573730000000000000000000000000000000000000000000000000000606082015260800190565b6020808252601c908201527f4552433732313a20746f6b656e20616c7265616479206d696e74656400000000604082015260600190565b60208082526024908201527f4552433732313a207472616e7366657220746f20746865207a65726f2061646460408201527f7265737300000000000000000000000000000000000000000000000000000000606082015260800190565b60208082526019908201527f4552433732313a20617070726f766520746f2063616c6c657200000000000000604082015260600190565b6020808252602c908201527f4552433732313a206f70657261746f7220717565727920666f72206e6f6e657860408201526b34b9ba32b73a103a37b5b2b760a11b606082015260800190565b60208082526038908201527f4552433732313a20617070726f76652063616c6c6572206973206e6f74206f7760408201527f6e6572206e6f7220617070726f76656420666f7220616c6c0000000000000000606082015260800190565b6020808252602a908201527f4552433732313a2062616c616e636520717565727920666f7220746865207a6560408201527f726f206164647265737300000000000000000000000000000000000000000000606082015260800190565b60208082526029908201527f4552433732313a206f776e657220717565727920666f72206e6f6e657869737460408201527f656e7420746f6b656e0000000000000000000000000000000000000000000000606082015260800190565b6020808252818101527f4552433732313a206d696e7420746f20746865207a65726f2061646472657373604082015260600190565b6020808252602c908201527f4552433732313a20617070726f76656420717565727920666f72206e6f6e657860408201526b34b9ba32b73a103a37b5b2b760a11b606082015260800190565b6020808252818101527f4f776e61626c653a2063616c6c6572206973206e6f7420746865206f776e6572604082015260600190565b60208082526010908201527f6e6f74207072696d65206e756d62657200000000000000000000000000000000604082015260600190565b60208082526029908201527f4552433732313a207472616e73666572206f6620746f6b656e2074686174206960408201527f73206e6f74206f776e0000000000000000000000000000000000000000000000606082015260800190565b60208082526021908201527f4552433732313a20617070726f76616c20746f2063757272656e74206f776e6560408201527f7200000000000000000000000000000000000000000000000000000000000000606082015260800190565b60208082526031908201527f4552433732313a207472616e736665722063616c6c6572206973206e6f74206f60408201527f776e6572206e6f7220617070726f766564000000000000000000000000000000606082015260800190565b6020808252602c908201527f455243373231456e756d657261626c653a20676c6f62616c20696e646578206f60408201527f7574206f6620626f756e64730000000000000000000000000000000000000000606082015260800190565b6020808252601f908201527f5265656e7472616e637947756172643a207265656e7472616e742063616c6c00604082015260600190565b90815260200190565b6000821982111561243b5761243b612501565b500190565b60008261244f5761244f612517565b500490565b60008282101561246657612466612501565b500390565b60005b8381101561248657818101518382015260200161246e565b8381111561093f5750506000910152565b6002810460018216806124ab57607f821691505b602082108114156124cc57634e487b7160e01b600052602260045260246000fd5b50919050565b60006000198214156124e6576124e6612501565b5060010190565b6000826124fc576124fc612517565b500690565b634e487b7160e01b600052601160045260246000fd5b634e487b7160e01b600052601260045260246000fd5b634e487b7160e01b600052604160045260246000fd5b6001600160e01b031981168114610ffa57600080fdfe3c7376672076657273696f6e3d223131227072657365727665417370656374526174696f3d22784d696e594d696e6d65657422786d6c6e733d22687474703a2f2f77777777332e6f72672f323030302f737667222076696577426f783d223020302032303020323030223e3c646566733e3c6c696e6561724772616469656e742069643d224772616469656e744247222078313d2230222078323d2230222079313d2230222079323d2231223e3c73746f70206f66667365743d223525222073746f702d636f6c6f723d2270783b7d3c2f7374796c653e3c726563742069643d22736f72612220783d22302220793d2230222077696474683d223130302522206865696768743d2231303025222066696c6c3d2275726c28234772616469656e7442472922202f3e3c7465787420783d223130302220793d223130302220636c6173733d22626173652220746578742d616e63686f723d226d6964646c65223e222f3e3c73746f70206f66667365743d22393525222073746f702d636f6c6f723d227768697465222f3e3c2f6c696e6561724772616469656e743e3c2f646566733e3c7374796c653e2e62617365207b66696c6c3a20233030303030303b666f6e742d66616d696c793aa2646970667358221220d8b1e81cf0598cd5e65ed57b5174f020f855ffb77abb5630add600ae50c7061c64736f6c63430008000033",
  "immutableReferences": {},
  "source": "// SPDX-License-Identifier: MIT\n\npragma solidity ^0.8.0;\n\nimport \"@openzeppelin/contracts/token/ERC721/extensions/ERC721Enumerable.sol\";\nimport \"@openzeppelin/contracts/security/ReentrancyGuard.sol\";\nimport \"@openzeppelin/contracts/access/Ownable.sol\";\n\ncontract PrimeNumber is ERC721Enumerable, ReentrancyGuard, Ownable {\n    mapping(uint256 => bool) private primeNumberBool;\n    uint256 max_num = 150;\n\n    constructor() ERC721(\"PrimeNumberLoot\", \"PrimeNumberLoot\") Ownable() {\n        for (uint256 i = 0; i <= max_num; i++) {\n            primeNumberBool[i] = true;\n        }\n\n        //oput ogf flag\n        for (uint256 i = 2; i <= max_num; i++) {\n            if (primeNumberBool[i] == true) {\n                for (uint256 j = 2 * i; j <= max_num; j = j + i) {\n                    primeNumberBool[j] = false;\n                }\n            }\n        }\n        primeNumberBool[57] = true;\n    }\n\n    //if prime number\n    function PRIMES(uint256 query) internal view returns (bool) {\n        require(\n            query <= max_num && query >= 0,\n            \"That number is not supported.\"\n        );\n        return primeNumberBool[query];\n    }\n\n    // get all prime number only owaner\n    function getAllPrimeNumber()\n        public\n        view\n        onlyOwner\n        returns (uint256[] memory primes)\n    {\n        uint256 primeNumberCount = getNumOfPrimeNumber();\n        primes = new uint256[](primeNumberCount);\n        uint256 index = 0;\n        for (uint256 i = 2; i <= max_num; i++) {\n            if (primeNumberBool[i] == true) {\n                primes[index] = i;\n                index++;\n            }\n        }\n        return primes;\n    }\n\n    //get the number of prime number\n    function getNumOfPrimeNumber() public view returns (uint256) {\n        uint256 index = 0;\n        for (uint256 i = 2; i <= max_num; i++) {\n            if (primeNumberBool[i] == true) {\n                index++;\n            }\n        }\n        return index;\n    }\n\n    //for claim\n    function claim(uint256 primeNumber) public nonReentrant {\n        require(PRIMES(primeNumber), \"not prime number\");\n        _safeMint(_msgSender(), primeNumber);\n    }\n\n    function ownerClaim(uint256 primeNumber) public nonReentrant onlyOwner {\n        require(PRIMES(primeNumber), \"not prime number\");\n        _safeMint(owner(), primeNumber);\n    }\n\n    function tokenURI(uint256 primeNumber)\n        public\n        pure\n        override\n        returns (string memory)\n    {\n        string[5] memory colors = [\"#78FF94\",\"#77EEFF\",\"#DBFF71\",\"#FF82B2\",\"#FF8856\"];\n        string[5] memory fonts = [\"sans-serif\",\"serif\",\"cursive\",\"fantasy\",\"monospace\"];\n        string[5] memory fontSizes = [\"50\",\"50\",\"50\",\"40\",\"30\"];\n\n        string memory strPrimeNumber = toString(primeNumber);//uint2str\n        uint256 lenPrimeNumber = bytes(strPrimeNumber).length;//\n\n        string memory color;//\n        string memory yourFont;//\n        string memory fontSize;\n\n\n        color = colors[lenPrimeNumber-1];\n        yourFont = fonts[lenPrimeNumber-1];\n        fontSize = fontSizes[lenPrimeNumber-1];\n        string[9] memory parts;\n\n        parts[0] = '<svg version=\"11\"preserveAspectRatio=\"xMinYMinmeet\"xmlns=\"http://wwww3.org/2000/svg\" viewBox=\"0 0 200 200\"><defs><linearGradient id=\"GradientBG\" x1=\"0\" x2=\"0\" y1=\"0\" y2=\"1\"><stop offset=\"5%\" stop-color=\"';\n        parts[1] = color;\n        parts[2] = '\"/><stop offset=\"95%\" stop-color=\"white\"/></linearGradient></defs><style>.base {fill: #000000;font-family:';\n        parts[3] = yourFont;\n        parts[4] = ';font-size:';\n        parts[5] = fontSize;\n        parts[6] = 'px;}</style><rect id=\"sora\" x=\"0\" y=\"0\" width=\"100%\" height=\"100%\" fill=\"url(#GradientBG)\" /><text x=\"100\" y=\"100\" class=\"base\" text-anchor=\"middle\">';\n        parts[7] = strPrimeNumber;\n        parts[8] = '</text></svg>';\n\n        string memory output = string(\n            abi.encodePacked(\n                parts[0],\n                parts[1],\n                parts[2],\n                parts[3],\n                parts[4],\n                parts[5],\n                parts[6],\n                parts[7],\n                parts[8]\n            )\n        );\n        // string memory json = Base64.encode(\n        //     bytes(\n        //         string(\n        //             abi.encodePacked(\n        //                 '{\"name\": \"prime Number #',\n        //                 toString(primeNumber),\n        //                 '\", \"description\": \"PrimeNumberLoot is an NFT of prime numbers up to 100000. It generates an image with different fonts depending on the number.\", \"image\": \"data:image/svg+xml;base64,',\n        //                 Base64.encode(bytes(output)),\n        //                 '\"}'\n        //             )\n        //         )\n        //     )\n        // );\n        // output = string(\n        //     abi.encodePacked(\"data:application/json;base64,\", json)\n        // );\n        return output;\n    }\n\n    function toString(uint256 value) internal pure returns (string memory) {\n        // Inspired by OraclizeAPI's implementation - MIT license\n        // https://github.com/oraclize/ethereum-api/blob/b42146b063c7d6ee1358846c198246239e9360e8/oraclizeAPI_0.4.25.sol\n        if (value == 0) {\n            return \"0\";\n        }\n        uint256 temp = value;\n        uint256 digits;\n        while (temp != 0) {\n            digits++;\n            temp /= 10;\n        }\n        bytes memory buffer = new bytes(digits);\n        while (value != 0) {\n            digits -= 1;\n            buffer[digits] = bytes1(uint8(48 + uint256(value % 10)));\n            value /= 10;\n        }\n        return string(buffer);\n    }\n}\n\n/// [MIT License]\n/// @title Base64\n/// @notice Provides a function for encoding some bytes in base64\n/// @author Brecht Devos <brecht@loopring.org>\nlibrary Base64 {\n    bytes internal constant TABLE =\n        \"ABCDEFGHIJKLMNOPQRSTUVWXYZabcdefghijklmnopqrstuvwxyz0123456789+/\";\n\n    /// @notice Encodes some bytes to the base64 representation\n    function encode(bytes memory data) internal pure returns (string memory) {\n        uint256 len = data.length;\n        if (len == 0) return \"\";\n\n        // multiply by 4/3 rounded up\n        uint256 encodedLen = 4 * ((len + 2) / 3);\n\n        // Add some extra buffer at the end\n        bytes memory result = new bytes(encodedLen + 32);\n\n        bytes memory table = TABLE;\n\n        assembly {\n            let tablePtr := add(table, 1)\n            let resultPtr := add(result, 32)\n\n            for {\n                let i := 0\n            } lt(i, len) {\n\n            } {\n                i := add(i, 3)\n                let input := and(mload(add(data, i)), 0xffffff)\n\n                let out := mload(add(tablePtr, and(shr(18, input), 0x3F)))\n                out := shl(8, out)\n                out := add(\n                    out,\n                    and(mload(add(tablePtr, and(shr(12, input), 0x3F))), 0xFF)\n                )\n                out := shl(8, out)\n                out := add(\n                    out,\n                    and(mload(add(tablePtr, and(shr(6, input), 0x3F))), 0xFF)\n                )\n                out := shl(8, out)\n                out := add(\n                    out,\n                    and(mload(add(tablePtr, and(input, 0x3F))), 0xFF)\n                )\n                out := shl(224, out)\n\n                mstore(resultPtr, out)\n\n                resultPtr := add(resultPtr, 4)\n            }\n\n            switch mod(len, 3)\n            case 1 {\n                mstore(sub(resultPtr, 2), shl(240, 0x3d3d))\n            }\n            case 2 {\n                mstore(sub(resultPtr, 1), shl(248, 0x3d))\n            }\n\n            mstore(result, encodedLen)\n        }\n\n        return string(result);\n    }\n}\n",
  "sourcePath": "/Users/yamane/smartContract/primeNumber/contracts/PrimeNumber.sol",
  "compiler": {
    "name": "solc",
    "version": "0.8.0+commit.c7dfd78e.Emscripten.clang"
  },
  "schemaVersion": "3.4.1",
  "updatedAt": "2021-09-15T09:12:16.997Z",
  "networkType": "ethereum",
  "devdoc": {
    "kind": "dev",
    "methods": {
      "approve(address,uint256)": {
        "details": "See {IERC721-approve}."
      },
      "balanceOf(address)": {
        "details": "See {IERC721-balanceOf}."
      },
      "getApproved(uint256)": {
        "details": "See {IERC721-getApproved}."
      },
      "isApprovedForAll(address,address)": {
        "details": "See {IERC721-isApprovedForAll}."
      },
      "name()": {
        "details": "See {IERC721Metadata-name}."
      },
      "owner()": {
        "details": "Returns the address of the current owner."
      },
      "ownerOf(uint256)": {
        "details": "See {IERC721-ownerOf}."
      },
      "renounceOwnership()": {
        "details": "Leaves the contract without owner. It will not be possible to call `onlyOwner` functions anymore. Can only be called by the current owner. NOTE: Renouncing ownership will leave the contract without an owner, thereby removing any functionality that is only available to the owner."
      },
      "safeTransferFrom(address,address,uint256)": {
        "details": "See {IERC721-safeTransferFrom}."
      },
      "safeTransferFrom(address,address,uint256,bytes)": {
        "details": "See {IERC721-safeTransferFrom}."
      },
      "setApprovalForAll(address,bool)": {
        "details": "See {IERC721-setApprovalForAll}."
      },
      "supportsInterface(bytes4)": {
        "details": "See {IERC165-supportsInterface}."
      },
      "symbol()": {
        "details": "See {IERC721Metadata-symbol}."
      },
      "tokenByIndex(uint256)": {
        "details": "See {IERC721Enumerable-tokenByIndex}."
      },
      "tokenOfOwnerByIndex(address,uint256)": {
        "details": "See {IERC721Enumerable-tokenOfOwnerByIndex}."
      },
      "totalSupply()": {
        "details": "See {IERC721Enumerable-totalSupply}."
      },
      "transferFrom(address,address,uint256)": {
        "details": "See {IERC721-transferFrom}."
      },
      "transferOwnership(address)": {
        "details": "Transfers ownership of the contract to a new account (`newOwner`). Can only be called by the current owner."
      }
    },
    "version": 1
  },
  "userdoc": {
    "kind": "user",
    "methods": {},
    "version": 1
  }
}