{
  "contractName": "PrimeNumber",
  "abi": [
    {
      "inputs": [],
      "stateMutability": "nonpayable",
      "type": "constructor"
    },
    {
      "anonymous": false,
      "inputs": [
        {
          "indexed": true,
          "internalType": "address",
          "name": "owner",
          "type": "address"
        },
        {
          "indexed": true,
          "internalType": "address",
          "name": "approved",
          "type": "address"
        },
        {
          "indexed": true,
          "internalType": "uint256",
          "name": "tokenId",
          "type": "uint256"
        }
      ],
      "name": "Approval",
      "type": "event"
    },
    {
      "anonymous": false,
      "inputs": [
        {
          "indexed": true,
          "internalType": "address",
          "name": "owner",
          "type": "address"
        },
        {
          "indexed": true,
          "internalType": "address",
          "name": "operator",
          "type": "address"
        },
        {
          "indexed": false,
          "internalType": "bool",
          "name": "approved",
          "type": "bool"
        }
      ],
      "name": "ApprovalForAll",
      "type": "event"
    },
    {
      "anonymous": false,
      "inputs": [
        {
          "indexed": true,
          "internalType": "address",
          "name": "previousOwner",
          "type": "address"
        },
        {
          "indexed": true,
          "internalType": "address",
          "name": "newOwner",
          "type": "address"
        }
      ],
      "name": "OwnershipTransferred",
      "type": "event"
    },
    {
      "anonymous": false,
      "inputs": [
        {
          "indexed": true,
          "internalType": "address",
          "name": "from",
          "type": "address"
        },
        {
          "indexed": true,
          "internalType": "address",
          "name": "to",
          "type": "address"
        },
        {
          "indexed": true,
          "internalType": "uint256",
          "name": "tokenId",
          "type": "uint256"
        }
      ],
      "name": "Transfer",
      "type": "event"
    },
    {
      "inputs": [
        {
          "internalType": "address",
          "name": "to",
          "type": "address"
        },
        {
          "internalType": "uint256",
          "name": "tokenId",
          "type": "uint256"
        }
      ],
      "name": "approve",
      "outputs": [],
      "stateMutability": "nonpayable",
      "type": "function"
    },
    {
      "inputs": [
        {
          "internalType": "address",
          "name": "owner",
          "type": "address"
        }
      ],
      "name": "balanceOf",
      "outputs": [
        {
          "internalType": "uint256",
          "name": "",
          "type": "uint256"
        }
      ],
      "stateMutability": "view",
      "type": "function"
    },
    {
      "inputs": [
        {
          "internalType": "uint256",
          "name": "tokenId",
          "type": "uint256"
        }
      ],
      "name": "getApproved",
      "outputs": [
        {
          "internalType": "address",
          "name": "",
          "type": "address"
        }
      ],
      "stateMutability": "view",
      "type": "function"
    },
    {
      "inputs": [
        {
          "internalType": "address",
          "name": "owner",
          "type": "address"
        },
        {
          "internalType": "address",
          "name": "operator",
          "type": "address"
        }
      ],
      "name": "isApprovedForAll",
      "outputs": [
        {
          "internalType": "bool",
          "name": "",
          "type": "bool"
        }
      ],
      "stateMutability": "view",
      "type": "function"
    },
    {
      "inputs": [],
      "name": "name",
      "outputs": [
        {
          "internalType": "string",
          "name": "",
          "type": "string"
        }
      ],
      "stateMutability": "view",
      "type": "function"
    },
    {
      "inputs": [],
      "name": "owner",
      "outputs": [
        {
          "internalType": "address",
          "name": "",
          "type": "address"
        }
      ],
      "stateMutability": "view",
      "type": "function"
    },
    {
      "inputs": [
        {
          "internalType": "uint256",
          "name": "tokenId",
          "type": "uint256"
        }
      ],
      "name": "ownerOf",
      "outputs": [
        {
          "internalType": "address",
          "name": "",
          "type": "address"
        }
      ],
      "stateMutability": "view",
      "type": "function"
    },
    {
      "inputs": [],
      "name": "renounceOwnership",
      "outputs": [],
      "stateMutability": "nonpayable",
      "type": "function"
    },
    {
      "inputs": [
        {
          "internalType": "address",
          "name": "from",
          "type": "address"
        },
        {
          "internalType": "address",
          "name": "to",
          "type": "address"
        },
        {
          "internalType": "uint256",
          "name": "tokenId",
          "type": "uint256"
        }
      ],
      "name": "safeTransferFrom",
      "outputs": [],
      "stateMutability": "nonpayable",
      "type": "function"
    },
    {
      "inputs": [
        {
          "internalType": "address",
          "name": "from",
          "type": "address"
        },
        {
          "internalType": "address",
          "name": "to",
          "type": "address"
        },
        {
          "internalType": "uint256",
          "name": "tokenId",
          "type": "uint256"
        },
        {
          "internalType": "bytes",
          "name": "_data",
          "type": "bytes"
        }
      ],
      "name": "safeTransferFrom",
      "outputs": [],
      "stateMutability": "nonpayable",
      "type": "function"
    },
    {
      "inputs": [
        {
          "internalType": "address",
          "name": "operator",
          "type": "address"
        },
        {
          "internalType": "bool",
          "name": "approved",
          "type": "bool"
        }
      ],
      "name": "setApprovalForAll",
      "outputs": [],
      "stateMutability": "nonpayable",
      "type": "function"
    },
    {
      "inputs": [
        {
          "internalType": "bytes4",
          "name": "interfaceId",
          "type": "bytes4"
        }
      ],
      "name": "supportsInterface",
      "outputs": [
        {
          "internalType": "bool",
          "name": "",
          "type": "bool"
        }
      ],
      "stateMutability": "view",
      "type": "function"
    },
    {
      "inputs": [],
      "name": "symbol",
      "outputs": [
        {
          "internalType": "string",
          "name": "",
          "type": "string"
        }
      ],
      "stateMutability": "view",
      "type": "function"
    },
    {
      "inputs": [
        {
          "internalType": "uint256",
          "name": "index",
          "type": "uint256"
        }
      ],
      "name": "tokenByIndex",
      "outputs": [
        {
          "internalType": "uint256",
          "name": "",
          "type": "uint256"
        }
      ],
      "stateMutability": "view",
      "type": "function"
    },
    {
      "inputs": [
        {
          "internalType": "address",
          "name": "owner",
          "type": "address"
        },
        {
          "internalType": "uint256",
          "name": "index",
          "type": "uint256"
        }
      ],
      "name": "tokenOfOwnerByIndex",
      "outputs": [
        {
          "internalType": "uint256",
          "name": "",
          "type": "uint256"
        }
      ],
      "stateMutability": "view",
      "type": "function"
    },
    {
      "inputs": [],
      "name": "totalSupply",
      "outputs": [
        {
          "internalType": "uint256",
          "name": "",
          "type": "uint256"
        }
      ],
      "stateMutability": "view",
      "type": "function"
    },
    {
      "inputs": [
        {
          "internalType": "address",
          "name": "from",
          "type": "address"
        },
        {
          "internalType": "address",
          "name": "to",
          "type": "address"
        },
        {
          "internalType": "uint256",
          "name": "tokenId",
          "type": "uint256"
        }
      ],
      "name": "transferFrom",
      "outputs": [],
      "stateMutability": "nonpayable",
      "type": "function"
    },
    {
      "inputs": [
        {
          "internalType": "address",
          "name": "newOwner",
          "type": "address"
        }
      ],
      "name": "transferOwnership",
      "outputs": [],
      "stateMutability": "nonpayable",
      "type": "function"
    },
    {
      "inputs": [],
      "name": "getAllPrimeNumber",
      "outputs": [
        {
          "internalType": "uint256[]",
          "name": "primes",
          "type": "uint256[]"
        }
      ],
      "stateMutability": "view",
      "type": "function"
    },
    {
      "inputs": [],
      "name": "getNumOfPrimeNumber",
      "outputs": [
        {
          "internalType": "uint256",
          "name": "",
          "type": "uint256"
        }
      ],
      "stateMutability": "view",
      "type": "function"
    },
    {
      "inputs": [
        {
          "internalType": "uint256",
          "name": "primeNumber",
          "type": "uint256"
        }
      ],
      "name": "claim",
      "outputs": [],
      "stateMutability": "nonpayable",
      "type": "function"
    },
    {
      "inputs": [
        {
          "internalType": "uint256",
          "name": "primeNumber",
          "type": "uint256"
        }
      ],
      "name": "ownerClaim",
      "outputs": [],
      "stateMutability": "nonpayable",
      "type": "function"
    },
    {
      "inputs": [
        {
          "internalType": "uint256",
          "name": "primeNumber",
          "type": "uint256"
        }
      ],
      "name": "tokenURI",
      "outputs": [
        {
          "internalType": "string",
          "name": "",
          "type": "string"
        }
      ],
      "stateMutability": "pure",
      "type": "function"
    }
  ],
  "bytecode": "0x60806040526064600d553480156200001657600080fd5b50604080518082018252600f8082526e141c9a5b59539d5b58995c931bdbdd608a1b6020808401828152855180870190965292855284015281519192916200006191600091620001e9565b50805162000077906001906020840190620001e9565b50506001600a5550620000936200008d62000193565b62000197565b60005b600d548111620000ce576000818152600c60205260409020805460ff1916600117905580620000c58162000309565b91505062000096565b5060025b600d54811162000156576000818152600c602052604090205460ff161515600114156200014157600062000108826002620002aa565b90505b600d5481116200013f576000818152600c60205260409020805460ff191690556200013782826200028f565b90506200010b565b505b806200014d8162000309565b915050620000d2565b506039600052600c6020527ffa587a69ff2868f708e56f30e58eb07cfce587b7d40951fa6177d9441e037d3d805460ff191660011790556200033d565b3390565b600b80546001600160a01b038381166001600160a01b0319831681179093556040519116919082907f8be0079c531659141344cd1fd0a4f28419497f9722a3daafe3b4186f6b6457e090600090a35050565b828054620001f790620002cc565b90600052602060002090601f0160209004810192826200021b576000855562000266565b82601f106200023657805160ff191683800117855562000266565b8280016001018555821562000266579182015b828111156200026657825182559160200191906001019062000249565b506200027492915062000278565b5090565b5b8082111562000274576000815560010162000279565b60008219821115620002a557620002a562000327565b500190565b6000816000190483118215151615620002c757620002c762000327565b500290565b600281046001821680620002e157607f821691505b602082108114156200030357634e487b7160e01b600052602260045260246000fd5b50919050565b600060001982141562000320576200032062000327565b5060010190565b634e487b7160e01b600052601160045260246000fd5b612e1e806200034d6000396000f3fe608060405234801561001057600080fd5b506004361061018d5760003560e01c80636352211e116100e3578063a22cb4651161008c578063c87b56dd11610066578063c87b56dd1461030d578063e985e9c514610320578063f2fde38b146103335761018d565b8063a22cb465146102d2578063b88d4fde146102e5578063bb7ed132146102f85761018d565b806383fdad89116100bd57806383fdad89146102ba5780638da5cb5b146102c257806395d89b41146102ca5761018d565b80636352211e1461028c57806370a082311461029f578063715018a6146102b25761018d565b806323b872dd1161014557806342842e0e1161011f57806342842e0e14610253578063434f48c4146102665780634f6ccce7146102795761018d565b806323b872dd1461021a5780632f745c591461022d578063379607f5146102405761018d565b8063081812fc11610176578063081812fc146101d0578063095ea7b3146101f057806318160ddd146102055761018d565b806301ffc9a71461019257806306fdde03146101bb575b600080fd5b6101a56101a0366004611fcd565b610346565b6040516101b2919061234b565b60405180910390f35b6101c361038c565b6040516101b29190612356565b6101e36101de366004612005565b61041e565b6040516101b291906122b7565b6102036101fe366004611fa4565b61046a565b005b61020d610502565b6040516101b2919061297d565b610203610228366004611e63565b610508565b61020d61023b366004611fa4565b610540565b61020361024e366004612005565b610592565b610203610261366004611e63565b6105f8565b610203610274366004612005565b610613565b61020d610287366004612005565b6106aa565b6101e361029a366004612005565b610705565b61020d6102ad366004611e10565b61073a565b61020361077e565b61020d6107c9565b6101e361081a565b6101c3610829565b6102036102e0366004611f6a565b610838565b6102036102f3366004611e9e565b610906565b610300610945565b6040516101b29190612307565b6101c361031b366004612005565b610a61565b6101a561032e366004611e31565b611165565b610203610341366004611e10565b611193565b60006001600160e01b031982167f780e9d63000000000000000000000000000000000000000000000000000000001480610384575061038482611204565b90505b919050565b60606000805461039b90612a14565b80601f01602080910402602001604051908101604052809291908181526020018280546103c790612a14565b80156104145780601f106103e957610100808354040283529160200191610414565b820191906000526020600020905b8154815290600101906020018083116103f757829003601f168201915b5050505050905090565b600061042982611276565b61044e5760405162461bcd60e51b81526004016104459061271a565b60405180910390fd5b506000908152600460205260409020546001600160a01b031690565b600061047582610705565b9050806001600160a01b0316836001600160a01b031614156104a95760405162461bcd60e51b81526004016104459061282f565b806001600160a01b03166104bb611293565b6001600160a01b031614806104d757506104d78161032e611293565b6104f35760405162461bcd60e51b8152600401610445906125ce565b6104fd8383611297565b505050565b60085490565b610519610513611293565b82611312565b6105355760405162461bcd60e51b81526004016104459061288c565b6104fd838383611397565b600061054b8361073a565b82106105695760405162461bcd60e51b8152600401610445906123a0565b506001600160a01b03919091166000908152600660209081526040808320938352929052205490565b6002600a5414156105b55760405162461bcd60e51b815260040161044590612946565b6002600a556105c3816114d1565b6105df5760405162461bcd60e51b81526004016104459061279b565b6105f06105ea611293565b82611515565b506001600a55565b6104fd83838360405180602001604052806000815250610906565b6002600a5414156106365760405162461bcd60e51b815260040161044590612946565b6002600a55610643611293565b6001600160a01b031661065461081a565b6001600160a01b03161461067a5760405162461bcd60e51b815260040161044590612766565b610683816114d1565b61069f5760405162461bcd60e51b81526004016104459061279b565b6105f06105ea61081a565b60006106b4610502565b82106106d25760405162461bcd60e51b8152600401610445906128e9565b600882815481106106f357634e487b7160e01b600052603260045260246000fd5b90600052602060002001549050919050565b6000818152600260205260408120546001600160a01b0316806103845760405162461bcd60e51b815260040161044590612688565b60006001600160a01b0382166107625760405162461bcd60e51b81526004016104459061262b565b506001600160a01b031660009081526003602052604090205490565b610786611293565b6001600160a01b031661079761081a565b6001600160a01b0316146107bd5760405162461bcd60e51b815260040161044590612766565b6107c76000611533565b565b60008060025b600d548111610814576000818152600c602052604090205460ff1615156001141561080257816107fe81612a4f565b9250505b8061080c81612a4f565b9150506107cf565b50905090565b600b546001600160a01b031690565b60606001805461039b90612a14565b610840611293565b6001600160a01b0316826001600160a01b031614156108715760405162461bcd60e51b81526004016104459061254b565b806005600061087e611293565b6001600160a01b03908116825260208083019390935260409182016000908120918716808252919093529120805460ff1916921515929092179091556108c2611293565b6001600160a01b03167f17307eab39ab6107e8899845ad3d59bd9653f200f220920489ca2b5937696c31836040516108fa919061234b565b60405180910390a35050565b610917610911611293565b83611312565b6109335760405162461bcd60e51b81526004016104459061288c565b61093f84848484611592565b50505050565b606061094f611293565b6001600160a01b031661096061081a565b6001600160a01b0316146109865760405162461bcd60e51b815260040161044590612766565b60006109906107c9565b90508067ffffffffffffffff8111156109b957634e487b7160e01b600052604160045260246000fd5b6040519080825280602002602001820160405280156109e2578160200160208202803683370190505b509150600060025b600d548111610a5b576000818152600c602052604090205460ff16151560011415610a495780848381518110610a3057634e487b7160e01b600052603260045260246000fd5b602090810291909101015281610a4581612a4f565b9250505b80610a5381612a4f565b9150506109ea565b50505090565b6040805160e08082018352600760a08084018281527f233738464639340000000000000000000000000000000000000000000000000060c080870191909152908552855180870187528381527f233737454546460000000000000000000000000000000000000000000000000060208281019190915280870191909152865180880188528481527f23444246463731000000000000000000000000000000000000000000000000008183015286880152865180880188528481527f234646383242320000000000000000000000000000000000000000000000000081830152606087810191909152875180890189528581527f23464638383536000000000000000000000000000000000000000000000000008184015260808089019190915288518088018a52600a8187019081527f73616e732d7365726966000000000000000000000000000000000000000000008287015281528951808b018b52600581527f736572696600000000000000000000000000000000000000000000000000000081860152818501528951808b018b528781527f637572736976650000000000000000000000000000000000000000000000000081860152818b01528951808b018b529687527f66616e746173790000000000000000000000000000000000000000000000000087850152808301969096528851808a018a52600981527f6d6f6e6f7370616365000000000000000000000000000000000000000000000081850152868201528851968701895260029487018581527f353000000000000000000000000000000000000000000000000000000000000094880185905287528851808a018a52858152808401859052878401528851808a018a528581528084019490945286890193909352875180890189528481527f3430000000000000000000000000000000000000000000000000000000000000818401528682015287518089019098529287527f333000000000000000000000000000000000000000000000000000000000000090870152830194909452906000610d61866115c5565b8051909150610d6e611dd1565b8760391415610f145760405180610100016040528060cb8152602001612ad760cb9139815260408051808201909152600781527f2342323232323200000000000000000000000000000000000000000000000000602082015281600160200201819052506040518060a00160405280606a8152602001612d7f606a9139604082015284610dfc6001846129d1565b60058110610e1a57634e487b7160e01b600052603260045260246000fd5b602002015181600360200201819052506040518060400160405280600b81526020017f3b666f6e742d73697a653a00000000000000000000000000000000000000000081525081600460098110610e8157634e487b7160e01b600052603260045260246000fd5b602002015283610e926001846129d1565b60058110610eb057634e487b7160e01b600052603260045260246000fd5b602002015181600560200201819052506040518060c0016040528060958152602001612caf6095913960c082015260e0810183905260408051808201909152600d81526c1e17ba32bc3a1f1e17b9bb339f60991b60208201526101008201526110a7565b6040518060c00160405280609a8152602001612bd5609a9139815284610f3b6001846129d1565b60058110610f5957634e487b7160e01b600052603260045260246000fd5b602002015181600160200201819052506040518060400160405280600c81526020017f3b666f6e742d73697a653a20000000000000000000000000000000000000000081525081600260098110610fc057634e487b7160e01b600052603260045260246000fd5b602002015283610fd16001846129d1565b60058110610fef57634e487b7160e01b600052603260045260246000fd5b60200201518160036020020181905250604051806060016040528060338152602001612ba2603391396080820152856110296001846129d1565b6005811061104757634e487b7160e01b600052603260045260246000fd5b602002015181600560200201819052506040518060600160405280603b8152602001612d44603b913960c082015260e0810183905260408051808201909152600d81526c1e17ba32bc3a1f1e17b9bb339f60991b60208201526101008201525b80516020808301516040808501516060860151608087015160a088015160c089015160e08a01516101008b0151965160009a6110e79a9099989101612049565b604051602081830303815290604052905060006111346111068b6115c5565b61110f84611714565b604051602001611120929190612109565b604051602081830303815290604052611714565b9050806040516020016111479190612272565b60408051808303601f190181529190529a9950505050505050505050565b6001600160a01b03918216600090815260056020908152604080832093909416825291909152205460ff1690565b61119b611293565b6001600160a01b03166111ac61081a565b6001600160a01b0316146111d25760405162461bcd60e51b815260040161044590612766565b6001600160a01b0381166111f85760405162461bcd60e51b81526004016104459061245a565b61120181611533565b50565b60006001600160e01b031982167f80ac58cd00000000000000000000000000000000000000000000000000000000148061126757506001600160e01b031982167f5b5e139f00000000000000000000000000000000000000000000000000000000145b806103845750610384826118bf565b6000908152600260205260409020546001600160a01b0316151590565b3390565b6000818152600460205260409020805473ffffffffffffffffffffffffffffffffffffffff19166001600160a01b03841690811790915581906112d982610705565b6001600160a01b03167f8c5be1e5ebec7d5bd14f71427d1e84f3dd0314c0f7b2291e5b200ac8c7c3b92560405160405180910390a45050565b600061131d82611276565b6113395760405162461bcd60e51b815260040161044590612582565b600061134483610705565b9050806001600160a01b0316846001600160a01b0316148061137f5750836001600160a01b03166113748461041e565b6001600160a01b0316145b8061138f575061138f8185611165565b949350505050565b826001600160a01b03166113aa82610705565b6001600160a01b0316146113d05760405162461bcd60e51b8152600401610445906127d2565b6001600160a01b0382166113f65760405162461bcd60e51b8152600401610445906124ee565b6114018383836118f1565b61140c600082611297565b6001600160a01b03831660009081526003602052604081208054600192906114359084906129d1565b90915550506001600160a01b0382166000908152600360205260408120805460019290611463908490612986565b9091555050600081815260026020526040808220805473ffffffffffffffffffffffffffffffffffffffff19166001600160a01b0386811691821790925591518493918716917fddf252ad1be2c89b69c2b068fc378daa952ba7f163c4a11628f55a4df523b3ef91a4505050565b6000600d5482111580156114e3575060015b6114ff5760405162461bcd60e51b815260040161044590612369565b506000908152600c602052604090205460ff1690565b61152f82826040518060200160405280600081525061197a565b5050565b600b80546001600160a01b0383811673ffffffffffffffffffffffffffffffffffffffff19831681179093556040519116919082907f8be0079c531659141344cd1fd0a4f28419497f9722a3daafe3b4186f6b6457e090600090a35050565b61159d848484611397565b6115a9848484846119ad565b61093f5760405162461bcd60e51b8152600401610445906123fd565b606081611606575060408051808201909152600181527f30000000000000000000000000000000000000000000000000000000000000006020820152610387565b8160005b8115611630578061161a81612a4f565b91506116299050600a8361299e565b915061160a565b60008167ffffffffffffffff81111561165957634e487b7160e01b600052604160045260246000fd5b6040519080825280601f01601f191660200182016040528015611683576020820181803683370190505b5090505b841561138f576116986001836129d1565b91506116a5600a86612a6a565b6116b0906030612986565b60f81b8183815181106116d357634e487b7160e01b600052603260045260246000fd5b60200101907effffffffffffffffffffffffffffffffffffffffffffffffffffffffffffff1916908160001a90535061170d600a8661299e565b9450611687565b805160609080611734575050604080516020810190915260008152610387565b60006003611743836002612986565b61174d919061299e565b6117589060046129b2565b90506000611767826020612986565b67ffffffffffffffff81111561178d57634e487b7160e01b600052604160045260246000fd5b6040519080825280601f01601f1916602001820160405280156117b7576020820181803683370190505b5090506000604051806060016040528060408152602001612c6f604091399050600181016020830160005b86811015611843576003818a01810151603f601282901c8116860151600c83901c8216870151600684901c831688015192909316870151600891821b60ff94851601821b92841692909201901b91160160e01b8352600490920191016117e2565b50600386066001811461185d5760028114611889576118b1565b7f3d3d0000000000000000000000000000000000000000000000000000000000006001198301526118b1565b7f3d000000000000000000000000000000000000000000000000000000000000006000198301525b505050918152949350505050565b6001600160e01b031981167f01ffc9a70000000000000000000000000000000000000000000000000000000014919050565b6118fc8383836104fd565b6001600160a01b0383166119185761191381611ae1565b61193b565b816001600160a01b0316836001600160a01b03161461193b5761193b8382611b25565b6001600160a01b0382166119575761195281611bc2565b6104fd565b826001600160a01b0316826001600160a01b0316146104fd576104fd8282611c9b565b6119848383611cdf565b61199160008484846119ad565b6104fd5760405162461bcd60e51b8152600401610445906123fd565b60006119c1846001600160a01b0316611dcb565b15611ad657836001600160a01b031663150b7a026119dd611293565b8786866040518563ffffffff1660e01b81526004016119ff94939291906122cb565b602060405180830381600087803b158015611a1957600080fd5b505af1925050508015611a49575060408051601f3d908101601f19168201909252611a4691810190611fe9565b60015b611aa3573d808015611a77576040519150601f19603f3d011682016040523d82523d6000602084013e611a7c565b606091505b508051611a9b5760405162461bcd60e51b8152600401610445906123fd565b805181602001fd5b6001600160e01b0319167f150b7a020000000000000000000000000000000000000000000000000000000014905061138f565b506001949350505050565b600880546000838152600960205260408120829055600182018355919091527ff3f7a9fe364faab93b216da50a3214154f22a0a2b415b23a84c8169e8b636ee30155565b60006001611b328461073a565b611b3c91906129d1565b600083815260076020526040902054909150808214611b8f576001600160a01b03841660009081526006602090815260408083208584528252808320548484528184208190558352600790915290208190555b5060009182526007602090815260408084208490556001600160a01b039094168352600681528383209183525290812055565b600854600090611bd4906001906129d1565b60008381526009602052604081205460088054939450909284908110611c0a57634e487b7160e01b600052603260045260246000fd5b906000526020600020015490508060088381548110611c3957634e487b7160e01b600052603260045260246000fd5b6000918252602080832090910192909255828152600990915260408082208490558582528120556008805480611c7f57634e487b7160e01b600052603160045260246000fd5b6001900381819060005260206000200160009055905550505050565b6000611ca68361073a565b6001600160a01b039093166000908152600660209081526040808320868452825280832085905593825260079052919091209190915550565b6001600160a01b038216611d055760405162461bcd60e51b8152600401610445906126e5565b611d0e81611276565b15611d2b5760405162461bcd60e51b8152600401610445906124b7565b611d37600083836118f1565b6001600160a01b0382166000908152600360205260408120805460019290611d60908490612986565b9091555050600081815260026020526040808220805473ffffffffffffffffffffffffffffffffffffffff19166001600160a01b03861690811790915590518392907fddf252ad1be2c89b69c2b068fc378daa952ba7f163c4a11628f55a4df523b3ef908290a45050565b3b151590565b6040518061012001604052806009905b6060815260200190600190039081611de15790505090565b80356001600160a01b038116811461038757600080fd5b600060208284031215611e21578081fd5b611e2a82611df9565b9392505050565b60008060408385031215611e43578081fd5b611e4c83611df9565b9150611e5a60208401611df9565b90509250929050565b600080600060608486031215611e77578081fd5b611e8084611df9565b9250611e8e60208501611df9565b9150604084013590509250925092565b60008060008060808587031215611eb3578081fd5b611ebc85611df9565b93506020611ecb818701611df9565b935060408601359250606086013567ffffffffffffffff80821115611eee578384fd5b818801915088601f830112611f01578384fd5b813581811115611f1357611f13612aaa565b604051601f8201601f1916810185018381118282101715611f3657611f36612aaa565b60405281815283820185018b1015611f4c578586fd5b81858501868301379081019093019390935250939692955090935050565b60008060408385031215611f7c578182fd5b611f8583611df9565b915060208301358015158114611f99578182fd5b809150509250929050565b60008060408385031215611fb6578182fd5b611fbf83611df9565b946020939093013593505050565b600060208284031215611fde578081fd5b8135611e2a81612ac0565b600060208284031215611ffa578081fd5b8151611e2a81612ac0565b600060208284031215612016578081fd5b5035919050565b600081518084526120358160208601602086016129e8565b601f01601f19169290920160200192915050565b60008a5161205b818460208f016129e8565b8a5161206d8183860160208f016129e8565b8a519184010190612082818360208e016129e8565b89516120948183850160208e016129e8565b89519290910101906120aa818360208c016129e8565b87519101906120bd818360208b016129e8565b86516120cf8183850160208b016129e8565b86519290910101906120e58183602089016129e8565b84516120f781838501602089016129e8565b9101019b9a5050505050505050505050565b60007f7b226e616d65223a20227072696d65204e756d62657220230000000000000000825283516121418160188501602088016129e8565b7f222c20226465736372697074696f6e223a20225072696d654e756d6265724c6f6018918401918201527f6f7420697320616e204e4654206f66207072696d65206e756d6265727320757060388201527f20746f203130303030302e2049742067656e65726174657320616e20696d616760588201527f65207769746820646966666572656e7420666f6e747320646570656e64696e6760788201527f206f6e20746865206e756d6265722e222c2022696d616765223a20226461746160988201527f3a696d6167652f7376672b786d6c3b6261736536342c0000000000000000000060b8820152835161223c8160ce8401602088016129e8565b7f227d00000000000000000000000000000000000000000000000000000000000060ce929091019182015260d001949350505050565b60007f646174613a6170706c69636174696f6e2f6a736f6e3b6261736536342c000000825282516122aa81601d8501602087016129e8565b91909101601d0192915050565b6001600160a01b0391909116815260200190565b60006001600160a01b038087168352808616602084015250836040830152608060608301526122fd608083018461201d565b9695505050505050565b6020808252825182820181905260009190848201906040850190845b8181101561233f57835183529284019291840191600101612323565b50909695505050505050565b901515815260200190565b600060208252611e2a602083018461201d565b6020808252601d908201527f54686174206e756d626572206973206e6f7420737570706f727465642e000000604082015260600190565b6020808252602b908201527f455243373231456e756d657261626c653a206f776e657220696e646578206f7560408201527f74206f6620626f756e6473000000000000000000000000000000000000000000606082015260800190565b60208082526032908201527f4552433732313a207472616e7366657220746f206e6f6e20455243373231526560408201527f63656976657220696d706c656d656e7465720000000000000000000000000000606082015260800190565b60208082526026908201527f4f776e61626c653a206e6577206f776e657220697320746865207a65726f206160408201527f6464726573730000000000000000000000000000000000000000000000000000606082015260800190565b6020808252601c908201527f4552433732313a20746f6b656e20616c7265616479206d696e74656400000000604082015260600190565b60208082526024908201527f4552433732313a207472616e7366657220746f20746865207a65726f2061646460408201527f7265737300000000000000000000000000000000000000000000000000000000606082015260800190565b60208082526019908201527f4552433732313a20617070726f766520746f2063616c6c657200000000000000604082015260600190565b6020808252602c908201527f4552433732313a206f70657261746f7220717565727920666f72206e6f6e657860408201526b34b9ba32b73a103a37b5b2b760a11b606082015260800190565b60208082526038908201527f4552433732313a20617070726f76652063616c6c6572206973206e6f74206f7760408201527f6e6572206e6f7220617070726f76656420666f7220616c6c0000000000000000606082015260800190565b6020808252602a908201527f4552433732313a2062616c616e636520717565727920666f7220746865207a6560408201527f726f206164647265737300000000000000000000000000000000000000000000606082015260800190565b60208082526029908201527f4552433732313a206f776e657220717565727920666f72206e6f6e657869737460408201527f656e7420746f6b656e0000000000000000000000000000000000000000000000606082015260800190565b6020808252818101527f4552433732313a206d696e7420746f20746865207a65726f2061646472657373604082015260600190565b6020808252602c908201527f4552433732313a20617070726f76656420717565727920666f72206e6f6e657860408201526b34b9ba32b73a103a37b5b2b760a11b606082015260800190565b6020808252818101527f4f776e61626c653a2063616c6c6572206973206e6f7420746865206f776e6572604082015260600190565b60208082526010908201527f6e6f74207072696d65206e756d62657200000000000000000000000000000000604082015260600190565b60208082526029908201527f4552433732313a207472616e73666572206f6620746f6b656e2074686174206960408201527f73206e6f74206f776e0000000000000000000000000000000000000000000000606082015260800190565b60208082526021908201527f4552433732313a20617070726f76616c20746f2063757272656e74206f776e6560408201527f7200000000000000000000000000000000000000000000000000000000000000606082015260800190565b60208082526031908201527f4552433732313a207472616e736665722063616c6c6572206973206e6f74206f60408201527f776e6572206e6f7220617070726f766564000000000000000000000000000000606082015260800190565b6020808252602c908201527f455243373231456e756d657261626c653a20676c6f62616c20696e646578206f60408201527f7574206f6620626f756e64730000000000000000000000000000000000000000606082015260800190565b6020808252601f908201527f5265656e7472616e637947756172643a207265656e7472616e742063616c6c00604082015260600190565b90815260200190565b6000821982111561299957612999612a7e565b500190565b6000826129ad576129ad612a94565b500490565b60008160001904831182151516156129cc576129cc612a7e565b500290565b6000828210156129e3576129e3612a7e565b500390565b60005b83811015612a035781810151838201526020016129eb565b8381111561093f5750506000910152565b600281046001821680612a2857607f821691505b60208210811415612a4957634e487b7160e01b600052602260045260246000fd5b50919050565b6000600019821415612a6357612a63612a7e565b5060010190565b600082612a7957612a79612a94565b500690565b634e487b7160e01b600052601160045260246000fd5b634e487b7160e01b600052601260045260246000fd5b634e487b7160e01b600052604160045260246000fd5b6001600160e01b03198116811461120157600080fdfe3c7376672076657273696f6e3d223131227072657365727665417370656374526174696f3d22784d696e594d696e6d65657422786d6c6e733d22687474703a2f2f77777777332e6f72672f323030302f737667222076696577426f783d223020302032303020323030223e3c646566733e3c6c696e6561724772616469656e742069643d224772616469656e744247222078313d2230222078323d2230222079313d2230222079323d2231223e3c73746f70206f66667365743d223525222073746f702d636f6c6f723d2270783b7d3c2f7374796c653e3c726563742077696474683d223130302522206865696768743d2231303025222066696c6c3d223c7376672076657273696f6e3d22312e3122207072657365727665417370656374526174696f3d22784d696e594d696e206d6565742220786d6c6e733d22687474703a2f2f7777772e77332e6f72672f323030302f737667222076696577426f783d223020302032303020323030223e3c7374796c653e2e62617365207b2066696c6c3a20233030303030303b20666f6e742d66616d696c793a4142434445464748494a4b4c4d4e4f505152535455565758595a6162636465666768696a6b6c6d6e6f707172737475767778797a303132333435363738392b2f70783b7d3c2f7374796c653e3c726563742069643d22736f72612220783d22302220793d2230222077696474683d223130302522206865696768743d2231303025222066696c6c3d2275726c28234772616469656e7442472922202f3e3c7465787420783d223130302220793d223130302220636c6173733d22626173652220746578742d616e63686f723d226d6964646c65223e222f3e3c7465787420783d223130302220793d223130302220636c6173733d22626173652220746578742d616e63686f723d226d6964646c65223e222f3e3c73746f70206f66667365743d22393525222073746f702d636f6c6f723d227768697465222f3e3c2f6c696e6561724772616469656e743e3c2f646566733e3c7374796c653e2e62617365207b66696c6c3a20233030303030303b666f6e742d66616d696c793aa264697066735822122018184be52dcdabc6bebc1fabc992ba1ba110d8d22ded2f2e8596c363ab14085764736f6c63430008000033",
  "immutableReferences": {},
  "source": "// SPDX-License-Identifier: MIT\n\npragma solidity ^0.8.0;\n\nimport \"@openzeppelin/contracts/token/ERC721/extensions/ERC721Enumerable.sol\";\nimport \"@openzeppelin/contracts/security/ReentrancyGuard.sol\";\nimport \"@openzeppelin/contracts/access/Ownable.sol\";\n\ncontract PrimeNumber is ERC721Enumerable, ReentrancyGuard, Ownable {\n    mapping(uint256 => bool) private primeNumberBool;\n    uint256 max_num = 100;\n\n    constructor() ERC721(\"PrimeNumberLoot\", \"PrimeNumberLoot\") Ownable() {\n        for (uint256 i = 0; i <= max_num; i++) {\n            primeNumberBool[i] = true;\n        }\n\n        //oput ogf flag\n        for (uint256 i = 2; i <= max_num; i++) {\n            if (primeNumberBool[i] == true) {\n                for (uint256 j = 2 * i; j <= max_num; j = j + i) {\n                    primeNumberBool[j] = false;\n                }\n            }\n        }\n        primeNumberBool[57] = true;\n    }\n\n    //if prime number\n    function PRIMES(uint256 query) internal view returns (bool) {\n        require(\n            query <= max_num && query >= 0,\n            \"That number is not supported.\"\n        );\n        return primeNumberBool[query];\n    }\n\n    // get all prime number only owaner\n    function getAllPrimeNumber()\n        public\n        view\n        onlyOwner\n        returns (uint256[] memory primes)\n    {\n        uint256 primeNumberCount = getNumOfPrimeNumber();\n        primes = new uint256[](primeNumberCount);\n        uint256 index = 0;\n        for (uint256 i = 2; i <= max_num; i++) {\n            if (primeNumberBool[i] == true) {\n                primes[index] = i;\n                index++;\n            }\n        }\n        return primes;\n    }\n\n    //get the number of prime number\n    function getNumOfPrimeNumber() public view returns (uint256) {\n        uint256 index = 0;\n        for (uint256 i = 2; i <= max_num; i++) {\n            if (primeNumberBool[i] == true) {\n                index++;\n            }\n        }\n        return index;\n    }\n\n    //for claim\n    function claim(uint256 primeNumber) public nonReentrant {\n        require(PRIMES(primeNumber), \"not prime number\");\n        _safeMint(_msgSender(), primeNumber);\n    }\n\n    function ownerClaim(uint256 primeNumber) public nonReentrant onlyOwner {\n        require(PRIMES(primeNumber), \"not prime number\");\n        _safeMint(owner(), primeNumber);\n    }\n\n    function tokenURI(uint256 primeNumber)\n        public\n        pure\n        override\n        returns (string memory)\n    {\n        string[5] memory colors = [\"#78FF94\",\"#77EEFF\",\"#DBFF71\",\"#FF82B2\",\"#FF8856\"];\n        string[5] memory fonts = [\"sans-serif\",\"serif\",\"cursive\",\"fantasy\",\"monospace\"];\n        string[5] memory fontSizes = [\"50\",\"50\",\"50\",\"40\",\"30\"];\n\n        string memory strPrimeNumber = toString(primeNumber);//uint2str\n        uint256 lenPrimeNumber = bytes(strPrimeNumber).length;//\n\n        string[9] memory parts;\n\n        if (primeNumber == 57){\n            parts[0] = '<svg version=\"11\"preserveAspectRatio=\"xMinYMinmeet\"xmlns=\"http://wwww3.org/2000/svg\" viewBox=\"0 0 200 200\"><defs><linearGradient id=\"GradientBG\" x1=\"0\" x2=\"0\" y1=\"0\" y2=\"1\"><stop offset=\"5%\" stop-color=\"';\n            parts[1] = \"#B22222\";\n            parts[2] = '\"/><stop offset=\"95%\" stop-color=\"white\"/></linearGradient></defs><style>.base {fill: #000000;font-family:';\n            parts[3] = fonts[lenPrimeNumber-1];\n            parts[4] = ';font-size:';\n            parts[5] = fontSizes[lenPrimeNumber-1];\n            parts[6] = 'px;}</style><rect id=\"sora\" x=\"0\" y=\"0\" width=\"100%\" height=\"100%\" fill=\"url(#GradientBG)\" /><text x=\"100\" y=\"100\" class=\"base\" text-anchor=\"middle\">';\n            parts[7] = strPrimeNumber;\n            parts[8] = '</text></svg>';\n        }else{\n            parts[0] = '<svg version=\"1.1\" preserveAspectRatio=\"xMinYMin meet\" xmlns=\"http://www.w3.org/2000/svg\" viewBox=\"0 0 200 200\"><style>.base { fill: #000000; font-family:';\n            parts[1] = fonts[lenPrimeNumber-1];\n            parts[2] = ';font-size: ';\n            parts[3] = fontSizes[lenPrimeNumber-1];\n            parts[4] = 'px;}</style><rect width=\"100%\" height=\"100%\" fill=\"';\n            parts[5] = colors[lenPrimeNumber-1];\n            parts[6] = '\"/><text x=\"100\" y=\"100\" class=\"base\" text-anchor=\"middle\">';\n            parts[7] = strPrimeNumber;\n            parts[8] = \"</text></svg>\";\n        }\n\n\n        string memory output = string(\n            abi.encodePacked(\n                parts[0],\n                parts[1],\n                parts[2],\n                parts[3],\n                parts[4],\n                parts[5],\n                parts[6],\n                parts[7],\n                parts[8]\n            )\n        );\n\n        string memory json = Base64.encode(\n            bytes(\n                string(\n                    abi.encodePacked(\n                        '{\"name\": \"prime Number #',\n                        toString(primeNumber),\n                        '\", \"description\": \"PrimeNumberLoot is an NFT of prime numbers up to 100000. It generates an image with different fonts depending on the number.\", \"image\": \"data:image/svg+xml;base64,',\n                        Base64.encode(bytes(output)),\n                        '\"}'\n                    )\n                )\n            )\n        );\n\n        output = string(\n            abi.encodePacked(\"data:application/json;base64,\", json)\n        );\n        return output;\n    }\n\n    function toString(uint256 value) internal pure returns (string memory) {\n        // Inspired by OraclizeAPI's implementation - MIT license\n        // https://github.com/oraclize/ethereum-api/blob/b42146b063c7d6ee1358846c198246239e9360e8/oraclizeAPI_0.4.25.sol\n        if (value == 0) {\n            return \"0\";\n        }\n        uint256 temp = value;\n        uint256 digits;\n        while (temp != 0) {\n            digits++;\n            temp /= 10;\n        }\n        bytes memory buffer = new bytes(digits);\n        while (value != 0) {\n            digits -= 1;\n            buffer[digits] = bytes1(uint8(48 + uint256(value % 10)));\n            value /= 10;\n        }\n        return string(buffer);\n    }\n}\n\n/// [MIT License]\n/// @title Base64\n/// @notice Provides a function for encoding some bytes in base64\n/// @author Brecht Devos <brecht@loopring.org>\nlibrary Base64 {\n    bytes internal constant TABLE =\n        \"ABCDEFGHIJKLMNOPQRSTUVWXYZabcdefghijklmnopqrstuvwxyz0123456789+/\";\n\n    /// @notice Encodes some bytes to the base64 representation\n    function encode(bytes memory data) internal pure returns (string memory) {\n        uint256 len = data.length;\n        if (len == 0) return \"\";\n\n        // multiply by 4/3 rounded up\n        uint256 encodedLen = 4 * ((len + 2) / 3);\n\n        // Add some extra buffer at the end\n        bytes memory result = new bytes(encodedLen + 32);\n\n        bytes memory table = TABLE;\n\n        assembly {\n            let tablePtr := add(table, 1)\n            let resultPtr := add(result, 32)\n\n            for {\n                let i := 0\n            } lt(i, len) {\n\n            } {\n                i := add(i, 3)\n                let input := and(mload(add(data, i)), 0xffffff)\n\n                let out := mload(add(tablePtr, and(shr(18, input), 0x3F)))\n                out := shl(8, out)\n                out := add(\n                    out,\n                    and(mload(add(tablePtr, and(shr(12, input), 0x3F))), 0xFF)\n                )\n                out := shl(8, out)\n                out := add(\n                    out,\n                    and(mload(add(tablePtr, and(shr(6, input), 0x3F))), 0xFF)\n                )\n                out := shl(8, out)\n                out := add(\n                    out,\n                    and(mload(add(tablePtr, and(input, 0x3F))), 0xFF)\n                )\n                out := shl(224, out)\n\n                mstore(resultPtr, out)\n\n                resultPtr := add(resultPtr, 4)\n            }\n\n            switch mod(len, 3)\n            case 1 {\n                mstore(sub(resultPtr, 2), shl(240, 0x3d3d))\n            }\n            case 2 {\n                mstore(sub(resultPtr, 1), shl(248, 0x3d))\n            }\n\n            mstore(result, encodedLen)\n        }\n\n        return string(result);\n    }\n}\n",
  "sourcePath": "/Users/yamane/smartContract/primeNumber/contracts/PrimeNumber.sol",
  "compiler": {
    "name": "solc",
    "version": "0.8.0+commit.c7dfd78e.Emscripten.clang"
  },
  "schemaVersion": "3.4.1",
  "updatedAt": "2021-09-17T06:41:22.453Z",
  "devdoc": {
    "kind": "dev",
    "methods": {
      "approve(address,uint256)": {
        "details": "See {IERC721-approve}."
      },
      "balanceOf(address)": {
        "details": "See {IERC721-balanceOf}."
      },
      "getApproved(uint256)": {
        "details": "See {IERC721-getApproved}."
      },
      "isApprovedForAll(address,address)": {
        "details": "See {IERC721-isApprovedForAll}."
      },
      "name()": {
        "details": "See {IERC721Metadata-name}."
      },
      "owner()": {
        "details": "Returns the address of the current owner."
      },
      "ownerOf(uint256)": {
        "details": "See {IERC721-ownerOf}."
      },
      "renounceOwnership()": {
        "details": "Leaves the contract without owner. It will not be possible to call `onlyOwner` functions anymore. Can only be called by the current owner. NOTE: Renouncing ownership will leave the contract without an owner, thereby removing any functionality that is only available to the owner."
      },
      "safeTransferFrom(address,address,uint256)": {
        "details": "See {IERC721-safeTransferFrom}."
      },
      "safeTransferFrom(address,address,uint256,bytes)": {
        "details": "See {IERC721-safeTransferFrom}."
      },
      "setApprovalForAll(address,bool)": {
        "details": "See {IERC721-setApprovalForAll}."
      },
      "supportsInterface(bytes4)": {
        "details": "See {IERC165-supportsInterface}."
      },
      "symbol()": {
        "details": "See {IERC721Metadata-symbol}."
      },
      "tokenByIndex(uint256)": {
        "details": "See {IERC721Enumerable-tokenByIndex}."
      },
      "tokenOfOwnerByIndex(address,uint256)": {
        "details": "See {IERC721Enumerable-tokenOfOwnerByIndex}."
      },
      "totalSupply()": {
        "details": "See {IERC721Enumerable-totalSupply}."
      },
      "transferFrom(address,address,uint256)": {
        "details": "See {IERC721-transferFrom}."
      },
      "transferOwnership(address)": {
        "details": "Transfers ownership of the contract to a new account (`newOwner`). Can only be called by the current owner."
      }
    },
    "version": 1
  },
  "userdoc": {
    "kind": "user",
    "methods": {},
    "version": 1
  }
}