{
  "contractName": "PrimeNumberLoot",
  "abi": [
    {
      "inputs": [],
      "stateMutability": "nonpayable",
      "type": "constructor"
    },
    {
      "anonymous": false,
      "inputs": [
        {
          "indexed": true,
          "internalType": "address",
          "name": "owner",
          "type": "address"
        },
        {
          "indexed": true,
          "internalType": "address",
          "name": "approved",
          "type": "address"
        },
        {
          "indexed": true,
          "internalType": "uint256",
          "name": "tokenId",
          "type": "uint256"
        }
      ],
      "name": "Approval",
      "type": "event"
    },
    {
      "anonymous": false,
      "inputs": [
        {
          "indexed": true,
          "internalType": "address",
          "name": "owner",
          "type": "address"
        },
        {
          "indexed": true,
          "internalType": "address",
          "name": "operator",
          "type": "address"
        },
        {
          "indexed": false,
          "internalType": "bool",
          "name": "approved",
          "type": "bool"
        }
      ],
      "name": "ApprovalForAll",
      "type": "event"
    },
    {
      "anonymous": false,
      "inputs": [
        {
          "indexed": true,
          "internalType": "address",
          "name": "previousOwner",
          "type": "address"
        },
        {
          "indexed": true,
          "internalType": "address",
          "name": "newOwner",
          "type": "address"
        }
      ],
      "name": "OwnershipTransferred",
      "type": "event"
    },
    {
      "anonymous": false,
      "inputs": [
        {
          "indexed": true,
          "internalType": "address",
          "name": "from",
          "type": "address"
        },
        {
          "indexed": true,
          "internalType": "address",
          "name": "to",
          "type": "address"
        },
        {
          "indexed": true,
          "internalType": "uint256",
          "name": "tokenId",
          "type": "uint256"
        }
      ],
      "name": "Transfer",
      "type": "event"
    },
    {
      "inputs": [
        {
          "internalType": "address",
          "name": "to",
          "type": "address"
        },
        {
          "internalType": "uint256",
          "name": "tokenId",
          "type": "uint256"
        }
      ],
      "name": "approve",
      "outputs": [],
      "stateMutability": "nonpayable",
      "type": "function"
    },
    {
      "inputs": [
        {
          "internalType": "address",
          "name": "owner",
          "type": "address"
        }
      ],
      "name": "balanceOf",
      "outputs": [
        {
          "internalType": "uint256",
          "name": "",
          "type": "uint256"
        }
      ],
      "stateMutability": "view",
      "type": "function",
      "constant": true
    },
    {
      "inputs": [
        {
          "internalType": "uint256",
          "name": "tokenId",
          "type": "uint256"
        }
      ],
      "name": "getApproved",
      "outputs": [
        {
          "internalType": "address",
          "name": "",
          "type": "address"
        }
      ],
      "stateMutability": "view",
      "type": "function",
      "constant": true
    },
    {
      "inputs": [
        {
          "internalType": "address",
          "name": "owner",
          "type": "address"
        },
        {
          "internalType": "address",
          "name": "operator",
          "type": "address"
        }
      ],
      "name": "isApprovedForAll",
      "outputs": [
        {
          "internalType": "bool",
          "name": "",
          "type": "bool"
        }
      ],
      "stateMutability": "view",
      "type": "function",
      "constant": true
    },
    {
      "inputs": [],
      "name": "name",
      "outputs": [
        {
          "internalType": "string",
          "name": "",
          "type": "string"
        }
      ],
      "stateMutability": "view",
      "type": "function",
      "constant": true
    },
    {
      "inputs": [],
      "name": "owner",
      "outputs": [
        {
          "internalType": "address",
          "name": "",
          "type": "address"
        }
      ],
      "stateMutability": "view",
      "type": "function",
      "constant": true
    },
    {
      "inputs": [
        {
          "internalType": "uint256",
          "name": "tokenId",
          "type": "uint256"
        }
      ],
      "name": "ownerOf",
      "outputs": [
        {
          "internalType": "address",
          "name": "",
          "type": "address"
        }
      ],
      "stateMutability": "view",
      "type": "function",
      "constant": true
    },
    {
      "inputs": [],
      "name": "renounceOwnership",
      "outputs": [],
      "stateMutability": "nonpayable",
      "type": "function"
    },
    {
      "inputs": [
        {
          "internalType": "address",
          "name": "from",
          "type": "address"
        },
        {
          "internalType": "address",
          "name": "to",
          "type": "address"
        },
        {
          "internalType": "uint256",
          "name": "tokenId",
          "type": "uint256"
        }
      ],
      "name": "safeTransferFrom",
      "outputs": [],
      "stateMutability": "nonpayable",
      "type": "function"
    },
    {
      "inputs": [
        {
          "internalType": "address",
          "name": "from",
          "type": "address"
        },
        {
          "internalType": "address",
          "name": "to",
          "type": "address"
        },
        {
          "internalType": "uint256",
          "name": "tokenId",
          "type": "uint256"
        },
        {
          "internalType": "bytes",
          "name": "_data",
          "type": "bytes"
        }
      ],
      "name": "safeTransferFrom",
      "outputs": [],
      "stateMutability": "nonpayable",
      "type": "function"
    },
    {
      "inputs": [
        {
          "internalType": "address",
          "name": "operator",
          "type": "address"
        },
        {
          "internalType": "bool",
          "name": "approved",
          "type": "bool"
        }
      ],
      "name": "setApprovalForAll",
      "outputs": [],
      "stateMutability": "nonpayable",
      "type": "function"
    },
    {
      "inputs": [
        {
          "internalType": "bytes4",
          "name": "interfaceId",
          "type": "bytes4"
        }
      ],
      "name": "supportsInterface",
      "outputs": [
        {
          "internalType": "bool",
          "name": "",
          "type": "bool"
        }
      ],
      "stateMutability": "view",
      "type": "function",
      "constant": true
    },
    {
      "inputs": [],
      "name": "symbol",
      "outputs": [
        {
          "internalType": "string",
          "name": "",
          "type": "string"
        }
      ],
      "stateMutability": "view",
      "type": "function",
      "constant": true
    },
    {
      "inputs": [
        {
          "internalType": "uint256",
          "name": "index",
          "type": "uint256"
        }
      ],
      "name": "tokenByIndex",
      "outputs": [
        {
          "internalType": "uint256",
          "name": "",
          "type": "uint256"
        }
      ],
      "stateMutability": "view",
      "type": "function",
      "constant": true
    },
    {
      "inputs": [
        {
          "internalType": "address",
          "name": "owner",
          "type": "address"
        },
        {
          "internalType": "uint256",
          "name": "index",
          "type": "uint256"
        }
      ],
      "name": "tokenOfOwnerByIndex",
      "outputs": [
        {
          "internalType": "uint256",
          "name": "",
          "type": "uint256"
        }
      ],
      "stateMutability": "view",
      "type": "function",
      "constant": true
    },
    {
      "inputs": [],
      "name": "totalSupply",
      "outputs": [
        {
          "internalType": "uint256",
          "name": "",
          "type": "uint256"
        }
      ],
      "stateMutability": "view",
      "type": "function",
      "constant": true
    },
    {
      "inputs": [
        {
          "internalType": "address",
          "name": "from",
          "type": "address"
        },
        {
          "internalType": "address",
          "name": "to",
          "type": "address"
        },
        {
          "internalType": "uint256",
          "name": "tokenId",
          "type": "uint256"
        }
      ],
      "name": "transferFrom",
      "outputs": [],
      "stateMutability": "nonpayable",
      "type": "function"
    },
    {
      "inputs": [
        {
          "internalType": "address",
          "name": "newOwner",
          "type": "address"
        }
      ],
      "name": "transferOwnership",
      "outputs": [],
      "stateMutability": "nonpayable",
      "type": "function"
    },
    {
      "inputs": [],
      "name": "encode",
      "outputs": [
        {
          "internalType": "string",
          "name": "",
          "type": "string"
        }
      ],
      "stateMutability": "nonpayable",
      "type": "function"
    },
    {
      "inputs": [
        {
          "internalType": "uint256",
          "name": "primeNumber",
          "type": "uint256"
        }
      ],
      "name": "claim",
      "outputs": [],
      "stateMutability": "nonpayable",
      "type": "function"
    },
    {
      "inputs": [
        {
          "internalType": "uint256",
          "name": "primeNumber",
          "type": "uint256"
        }
      ],
      "name": "tokenURI",
      "outputs": [
        {
          "internalType": "string",
          "name": "",
          "type": "string"
        }
      ],
      "stateMutability": "pure",
      "type": "function",
      "constant": true
    }
  ],
  "bytecode": "0x6080604052600a600d553480156200001657600080fd5b50604080518082018252600f8082526e141c9a5b59539d5b58995c931bdbdd608a1b602080840182815285518087019096529285528401528151919291620000619160009162000264565b5080516200007790600190602084019062000264565b50506001600a55506200008a3362000212565b60005b600d546200009d9060016200030a565b811015620000d3576000818152600c60205260409020805460ff1916600117905580620000ca8162000384565b9150506200008d565b50600c6020527f13649b2456f1b42fef0f0040b3aaeabcd21a76a0f3f5defd4f583839455116e8805460ff1990811690915560016000527fd421a5181c571bba3f01190c922c3b2a896fc1d84e86c9f17ac10e67ebef8b5c8054909116905560025b600d54620001459060016200030a565b811015620001d5576000818152600c602052604090205460ff16151560011415620001c05760006200017982600262000325565b90505b600d546200018c9060016200030a565b811015620001be576000818152600c60205260409020805460ff19169055620001b682826200030a565b90506200017c565b505b80620001cc8162000384565b91505062000135565b506039600052600c6020527ffa587a69ff2868f708e56f30e58eb07cfce587b7d40951fa6177d9441e037d3d805460ff19166001179055620003b8565b600b80546001600160a01b038381166001600160a01b0319831681179093556040519116919082907f8be0079c531659141344cd1fd0a4f28419497f9722a3daafe3b4186f6b6457e090600090a35050565b828054620002729062000347565b90600052602060002090601f016020900481019282620002965760008555620002e1565b82601f10620002b157805160ff1916838001178555620002e1565b82800160010185558215620002e1579182015b82811115620002e1578251825591602001919060010190620002c4565b50620002ef929150620002f3565b5090565b5b80821115620002ef5760008155600101620002f4565b60008219821115620003205762000320620003a2565b500190565b6000816000190483118215151615620003425762000342620003a2565b500290565b600181811c908216806200035c57607f821691505b602082108114156200037e57634e487b7160e01b600052602260045260246000fd5b50919050565b60006000198214156200039b576200039b620003a2565b5060010190565b634e487b7160e01b600052601160045260246000fd5b61235480620003c86000396000f3fe608060405234801561001057600080fd5b50600436106101375760003560e01c80636352211e116100b8578063a22cb4651161007c578063a22cb46514610271578063b88d4fde14610284578063bd14598f14610297578063c87b56dd1461029f578063e985e9c5146102b2578063f2fde38b146102ee57600080fd5b80636352211e1461022a57806370a082311461023d578063715018a6146102505780638da5cb5b1461025857806395d89b411461026957600080fd5b806323b872dd116100ff57806323b872dd146101cb5780632f745c59146101de578063379607f5146101f157806342842e0e146102045780634f6ccce71461021757600080fd5b806301ffc9a71461013c57806306fdde0314610164578063081812fc14610179578063095ea7b3146101a457806318160ddd146101b9575b600080fd5b61014f61014a366004611c7c565b610301565b60405190151581526020015b60405180910390f35b61016c61032c565b60405161015b9190611fa4565b61018c610187366004611cb6565b6103be565b6040516001600160a01b03909116815260200161015b565b6101b76101b2366004611c52565b610458565b005b6008545b60405190815260200161015b565b6101b76101d9366004611afe565b61056e565b6101bd6101ec366004611c52565b61059f565b6101b76101ff366004611cb6565b610635565b6101b7610212366004611afe565b6106f4565b6101bd610225366004611cb6565b61070f565b61018c610238366004611cb6565b6107a2565b6101bd61024b366004611aa9565b610819565b6101b76108a0565b600b546001600160a01b031661018c565b61016c610906565b6101b761027f366004611c16565b610915565b6101b7610292366004611b3a565b6109da565b61016c610a12565b61016c6102ad366004611cb6565b610aee565b61014f6102c0366004611acb565b6001600160a01b03918216600090815260056020908152604080832093909416825291909152205460ff1690565b6101b76102fc366004611aa9565b610de9565b60006001600160e01b0319821663780e9d6360e01b1480610326575061032682610eb4565b92915050565b60606000805461033b906120e8565b80601f0160208091040260200160405190810160405280929190818152602001828054610367906120e8565b80156103b45780601f10610389576101008083540402835291602001916103b4565b820191906000526020600020905b81548152906001019060200180831161039757829003601f168201915b5050505050905090565b6000818152600260205260408120546001600160a01b031661043c5760405162461bcd60e51b815260206004820152602c60248201527f4552433732313a20617070726f76656420717565727920666f72206e6f6e657860448201526b34b9ba32b73a103a37b5b2b760a11b60648201526084015b60405180910390fd5b506000908152600460205260409020546001600160a01b031690565b6000610463826107a2565b9050806001600160a01b0316836001600160a01b031614156104d15760405162461bcd60e51b815260206004820152602160248201527f4552433732313a20617070726f76616c20746f2063757272656e74206f776e656044820152603960f91b6064820152608401610433565b336001600160a01b03821614806104ed57506104ed81336102c0565b61055f5760405162461bcd60e51b815260206004820152603860248201527f4552433732313a20617070726f76652063616c6c6572206973206e6f74206f7760448201527f6e6572206e6f7220617070726f76656420666f7220616c6c00000000000000006064820152608401610433565b6105698383610f04565b505050565b6105783382610f72565b6105945760405162461bcd60e51b815260040161043390612009565b610569838383611069565b60006105aa83610819565b821061060c5760405162461bcd60e51b815260206004820152602b60248201527f455243373231456e756d657261626c653a206f776e657220696e646578206f7560448201526a74206f6620626f756e647360a81b6064820152608401610433565b506001600160a01b03919091166000908152600660209081526040808320938352929052205490565b6002600a5414156106885760405162461bcd60e51b815260206004820152601f60248201527f5265656e7472616e637947756172643a207265656e7472616e742063616c6c006044820152606401610433565b6002600a5561069681611214565b6106e25760405162461bcd60e51b815260206004820152601860248201527f49742773206e6f742061207072696d65206e756d6265722e00000000000000006044820152606401610433565b6106ec3382611288565b506001600a55565b610569838383604051806020016040528060008152506109da565b600061071a60085490565b821061077d5760405162461bcd60e51b815260206004820152602c60248201527f455243373231456e756d657261626c653a20676c6f62616c20696e646578206f60448201526b7574206f6620626f756e647360a01b6064820152608401610433565b6008828154811061079057610790612194565b90600052602060002001549050919050565b6000818152600260205260408120546001600160a01b0316806103265760405162461bcd60e51b815260206004820152602960248201527f4552433732313a206f776e657220717565727920666f72206e6f6e657869737460448201526832b73a103a37b5b2b760b91b6064820152608401610433565b60006001600160a01b0382166108845760405162461bcd60e51b815260206004820152602a60248201527f4552433732313a2062616c616e636520717565727920666f7220746865207a65604482015269726f206164647265737360b01b6064820152608401610433565b506001600160a01b031660009081526003602052604090205490565b600b546001600160a01b031633146108fa5760405162461bcd60e51b815260206004820181905260248201527f4f776e61626c653a2063616c6c6572206973206e6f7420746865206f776e65726044820152606401610433565b61090460006112a6565b565b60606001805461033b906120e8565b6001600160a01b03821633141561096e5760405162461bcd60e51b815260206004820152601960248201527f4552433732313a20617070726f766520746f2063616c6c6572000000000000006044820152606401610433565b3360008181526005602090815260408083206001600160a01b03871680855290835292819020805460ff191686151590811790915590519081529192917f17307eab39ab6107e8899845ad3d59bd9653f200f220920489ca2b5937696c31910160405180910390a35050565b6109e43383610f72565b610a005760405162461bcd60e51b815260040161043390612009565b610a0c848484846112f8565b50505050565b6060604051602001610ada906020808252608a908201527f322c332c352c372c31312c31332c31372c31392c32332c32392c33312c33372c60408201527f34312c34332c34372c35332c35392c36312c36372c37312c37332c37392c383360608201527f2c38392c39372c3130312c3130332c3130372c3130392c3131332c3132372c3160808201527f33312c3133372c3133392c3134392c3135312c3135372c3136332c3136372c3160a08201526937332c3137392c31383160b01b60c082015260e00190565b604051602081830303815290604052905090565b6040805160a08082018352600760608381018281526608cdce11918e4d60ca1b6080808701919091529085528551808701875283815266119b9ba2a2a32360c91b6020828101919091528087019190915286518088018852938452662344424646373160c81b848201528587019390935285519384018652600284830181815261035360f41b928601929092529084528551808701875281815261343560f01b81850152848401528551808701875290815261034360f41b92810192909252938201526000610bbc8561132b565b8051909150610bc9611a65565b6040518060c00160405280609a815260200161220a609a9139815260408051808201825260078152666375727369766560c81b602080830191909152808401919091528151808301909252600c82526b01db337b73a16b9b4bd329d160a51b90820152816002602002015283610c406001846120a5565b60038110610c5057610c50612194565b602002015181600360200201819052506040518060600160405280603381526020016121d76033913960808201526039871415610caf5760408051808201909152600781526611a3231c1c1a9b60c91b602082015260a0820152610cd6565b84610cbb6001846120a5565b60038110610ccb57610ccb612194565b602002015160a08201525b6040518060600160405280603b81526020016122e4603b913960c082015260e0810183905260408051808201909152600d81526c1e17ba32bc3a1f1e17b9bb339f60991b6020820152816008602090810291909101919091528151828201516040808501516060860151608087015160a088015160c089015160e08a01516101008b0151965160009a610d6c9a99989101611cfb565b60405160208183030381529060405290506000610db9610d8b8a61132b565b610d9484611429565b604051602001610da5929190611dbd565b604051602081830303815290604052611429565b905080604051602001610dcc9190611f22565b60408051601f198184030181529190529998505050505050505050565b600b546001600160a01b03163314610e435760405162461bcd60e51b815260206004820181905260248201527f4f776e61626c653a2063616c6c6572206973206e6f7420746865206f776e65726044820152606401610433565b6001600160a01b038116610ea85760405162461bcd60e51b815260206004820152602660248201527f4f776e61626c653a206e6577206f776e657220697320746865207a65726f206160448201526564647265737360d01b6064820152608401610433565b610eb1816112a6565b50565b60006001600160e01b031982166380ac58cd60e01b1480610ee557506001600160e01b03198216635b5e139f60e01b145b8061032657506301ffc9a760e01b6001600160e01b0319831614610326565b600081815260046020526040902080546001600160a01b0319166001600160a01b0384169081179091558190610f39826107a2565b6001600160a01b03167f8c5be1e5ebec7d5bd14f71427d1e84f3dd0314c0f7b2291e5b200ac8c7c3b92560405160405180910390a45050565b6000818152600260205260408120546001600160a01b0316610feb5760405162461bcd60e51b815260206004820152602c60248201527f4552433732313a206f70657261746f7220717565727920666f72206e6f6e657860448201526b34b9ba32b73a103a37b5b2b760a11b6064820152608401610433565b6000610ff6836107a2565b9050806001600160a01b0316846001600160a01b031614806110315750836001600160a01b0316611026846103be565b6001600160a01b0316145b8061106157506001600160a01b0380821660009081526005602090815260408083209388168352929052205460ff165b949350505050565b826001600160a01b031661107c826107a2565b6001600160a01b0316146110e45760405162461bcd60e51b815260206004820152602960248201527f4552433732313a207472616e73666572206f6620746f6b656e2074686174206960448201526839903737ba1037bbb760b91b6064820152608401610433565b6001600160a01b0382166111465760405162461bcd60e51b8152602060048201526024808201527f4552433732313a207472616e7366657220746f20746865207a65726f206164646044820152637265737360e01b6064820152608401610433565b61115183838361158f565b61115c600082610f04565b6001600160a01b03831660009081526003602052604081208054600192906111859084906120a5565b90915550506001600160a01b03821660009081526003602052604081208054600192906111b390849061205a565b909155505060008181526002602052604080822080546001600160a01b0319166001600160a01b0386811691821790925591518493918716917fddf252ad1be2c89b69c2b068fc378daa952ba7f163c4a11628f55a4df523b3ef91a4505050565b6000600d548211158015611226575060015b6112725760405162461bcd60e51b815260206004820152601d60248201527f54686174206e756d626572206973206e6f7420737570706f727465642e0000006044820152606401610433565b506000908152600c602052604090205460ff1690565b6112a2828260405180602001604052806000815250611647565b5050565b600b80546001600160a01b038381166001600160a01b0319831681179093556040519116919082907f8be0079c531659141344cd1fd0a4f28419497f9722a3daafe3b4186f6b6457e090600090a35050565b611303848484611069565b61130f8484848461167a565b610a0c5760405162461bcd60e51b815260040161043390611fb7565b60608161134f5750506040805180820190915260018152600360fc1b602082015290565b8160005b8115611379578061136381612123565b91506113729050600a83612072565b9150611353565b60008167ffffffffffffffff811115611394576113946121aa565b6040519080825280601f01601f1916602001820160405280156113be576020820181803683370190505b5090505b8415611061576113d36001836120a5565b91506113e0600a8661213e565b6113eb90603061205a565b60f81b81838151811061140057611400612194565b60200101906001600160f81b031916908160001a905350611422600a86612072565b94506113c2565b805160609080611449575050604080516020810190915260008152919050565b6000600361145883600261205a565b6114629190612072565b61146d906004612086565b9050600061147c82602061205a565b67ffffffffffffffff811115611494576114946121aa565b6040519080825280601f01601f1916602001820160405280156114be576020820181803683370190505b50905060006040518060600160405280604081526020016122a4604091399050600181016020830160005b8681101561154a576003818a01810151603f601282901c8116860151600c83901c8216870151600684901c831688015192909316870151600891821b60ff94851601821b92841692909201901b91160160e01b8352600490920191016114e9565b506003860660018114611564576002811461157557611581565b613d3d60f01b600119830152611581565b603d60f81b6000198301525b505050918152949350505050565b6001600160a01b0383166115ea576115e581600880546000838152600960205260408120829055600182018355919091527ff3f7a9fe364faab93b216da50a3214154f22a0a2b415b23a84c8169e8b636ee30155565b61160d565b816001600160a01b0316836001600160a01b03161461160d5761160d8382611787565b6001600160a01b0382166116245761056981611824565b826001600160a01b0316826001600160a01b0316146105695761056982826118d3565b6116518383611917565b61165e600084848461167a565b6105695760405162461bcd60e51b815260040161043390611fb7565b60006001600160a01b0384163b1561177c57604051630a85bd0160e11b81526001600160a01b0385169063150b7a02906116be903390899088908890600401611f67565b602060405180830381600087803b1580156116d857600080fd5b505af1925050508015611708575060408051601f3d908101601f1916820190925261170591810190611c99565b60015b611762573d808015611736576040519150601f19603f3d011682016040523d82523d6000602084013e61173b565b606091505b50805161175a5760405162461bcd60e51b815260040161043390611fb7565b805181602001fd5b6001600160e01b031916630a85bd0160e11b149050611061565b506001949350505050565b6000600161179484610819565b61179e91906120a5565b6000838152600760205260409020549091508082146117f1576001600160a01b03841660009081526006602090815260408083208584528252808320548484528184208190558352600790915290208190555b5060009182526007602090815260408084208490556001600160a01b039094168352600681528383209183525290812055565b600854600090611836906001906120a5565b6000838152600960205260408120546008805493945090928490811061185e5761185e612194565b90600052602060002001549050806008838154811061187f5761187f612194565b60009182526020808320909101929092558281526009909152604080822084905585825281205560088054806118b7576118b761217e565b6001900381819060005260206000200160009055905550505050565b60006118de83610819565b6001600160a01b039093166000908152600660209081526040808320868452825280832085905593825260079052919091209190915550565b6001600160a01b03821661196d5760405162461bcd60e51b815260206004820181905260248201527f4552433732313a206d696e7420746f20746865207a65726f20616464726573736044820152606401610433565b6000818152600260205260409020546001600160a01b0316156119d25760405162461bcd60e51b815260206004820152601c60248201527f4552433732313a20746f6b656e20616c7265616479206d696e746564000000006044820152606401610433565b6119de6000838361158f565b6001600160a01b0382166000908152600360205260408120805460019290611a0790849061205a565b909155505060008181526002602052604080822080546001600160a01b0319166001600160a01b03861690811790915590518392907fddf252ad1be2c89b69c2b068fc378daa952ba7f163c4a11628f55a4df523b3ef908290a45050565b6040518061012001604052806009905b6060815260200190600190039081611a755790505090565b80356001600160a01b0381168114611aa457600080fd5b919050565b600060208284031215611abb57600080fd5b611ac482611a8d565b9392505050565b60008060408385031215611ade57600080fd5b611ae783611a8d565b9150611af560208401611a8d565b90509250929050565b600080600060608486031215611b1357600080fd5b611b1c84611a8d565b9250611b2a60208501611a8d565b9150604084013590509250925092565b60008060008060808587031215611b5057600080fd5b611b5985611a8d565b9350611b6760208601611a8d565b925060408501359150606085013567ffffffffffffffff80821115611b8b57600080fd5b818701915087601f830112611b9f57600080fd5b813581811115611bb157611bb16121aa565b604051601f8201601f19908116603f01168101908382118183101715611bd957611bd96121aa565b816040528281528a6020848701011115611bf257600080fd5b82602086016020830137600060208483010152809550505050505092959194509250565b60008060408385031215611c2957600080fd5b611c3283611a8d565b915060208301358015158114611c4757600080fd5b809150509250929050565b60008060408385031215611c6557600080fd5b611c6e83611a8d565b946020939093013593505050565b600060208284031215611c8e57600080fd5b8135611ac4816121c0565b600060208284031215611cab57600080fd5b8151611ac4816121c0565b600060208284031215611cc857600080fd5b5035919050565b60008151808452611ce78160208601602086016120bc565b601f01601f19169290920160200192915050565b60008a51611d0d818460208f016120bc565b8a5190830190611d21818360208f016120bc565b8a51611d338183850160208f016120bc565b8a51929091010190611d49818360208d016120bc565b8851611d5b8183850160208d016120bc565b8851929091010190611d71818360208b016120bc565b8651611d838183850160208b016120bc565b8651929091010190611d998183602089016120bc565b8451611dab81838501602089016120bc565b9101019b9a5050505050505050505050565b7f7b226e616d65223a20227072696d65204e756d62657220230000000000000000815260008351611df58160188501602088016120bc565b7f222c20226465736372697074696f6e223a20225072696d654e556d6265724c6f6018918401918201527f6f7420697320616e204e465420666f72207072696d65206e756d62657273207560388201527f7020746f20313030302e20546865206261636b67726f756e6420636f6c6f722060588201527f616e6420666f6e74206368616e67657320646570656e64696e67206f6e20746860788201527f65206e756d626572206f662064696769747320696e20746865207072696d652060988201527f6e756d6265722e222c2022696d616765223a2022646174613a696d6167652f7360b88201526d1d99cade1b5b0ed8985cd94d8d0b60921b60d88201528351611f078160e68401602088016120bc565b61227d60f01b60e6929091019182015260e801949350505050565b7f646174613a6170706c69636174696f6e2f6a736f6e3b6261736536342c000000815260008251611f5a81601d8501602087016120bc565b91909101601d0192915050565b6001600160a01b0385811682528416602082015260408101839052608060608201819052600090611f9a90830184611ccf565b9695505050505050565b602081526000611ac46020830184611ccf565b60208082526032908201527f4552433732313a207472616e7366657220746f206e6f6e20455243373231526560408201527131b2b4bb32b91034b6b83632b6b2b73a32b960711b606082015260800190565b60208082526031908201527f4552433732313a207472616e736665722063616c6c6572206973206e6f74206f6040820152701ddb995c881b9bdc88185c1c1c9bdd9959607a1b606082015260800190565b6000821982111561206d5761206d612152565b500190565b60008261208157612081612168565b500490565b60008160001904831182151516156120a0576120a0612152565b500290565b6000828210156120b7576120b7612152565b500390565b60005b838110156120d75781810151838201526020016120bf565b83811115610a0c5750506000910152565b600181811c908216806120fc57607f821691505b6020821081141561211d57634e487b7160e01b600052602260045260246000fd5b50919050565b600060001982141561213757612137612152565b5060010190565b60008261214d5761214d612168565b500690565b634e487b7160e01b600052601160045260246000fd5b634e487b7160e01b600052601260045260246000fd5b634e487b7160e01b600052603160045260246000fd5b634e487b7160e01b600052603260045260246000fd5b634e487b7160e01b600052604160045260246000fd5b6001600160e01b031981168114610eb157600080fdfe70783b7d3c2f7374796c653e3c726563742077696474683d223130302522206865696768743d2231303025222066696c6c3d223c7376672076657273696f6e3d22312e3122207072657365727665417370656374526174696f3d22784d696e594d696e206d6565742220786d6c6e733d22687474703a2f2f7777772e77332e6f72672f323030302f737667222076696577426f783d223020302032303020323030223e3c7374796c653e2e62617365207b2066696c6c3a20233030303030303b20666f6e742d66616d696c793a4142434445464748494a4b4c4d4e4f505152535455565758595a6162636465666768696a6b6c6d6e6f707172737475767778797a303132333435363738392b2f222f3e3c7465787420783d223130302220793d223130302220636c6173733d22626173652220746578742d616e63686f723d226d6964646c65223ea26469706673582212209b5107d2d2229a06103fa65af314306cbe93957f19ae9052a6f9a4e4d9c271a764736f6c63430008060033",
  "immutableReferences": {},
  "source": "// SPDX-License-Identifier: MIT\n\npragma solidity ^0.8.0;\n\nimport \"@openzeppelin/contracts/token/ERC721/extensions/ERC721Enumerable.sol\";\nimport \"@openzeppelin/contracts/security/ReentrancyGuard.sol\";\nimport \"@openzeppelin/contracts/access/Ownable.sol\";\n\n/// [MIT License]\n/// @title Base64\n/// @notice Provides a function for encoding some bytes in base64\n/// @author Brecht Devos <brecht@loopring.org>\nlibrary Base64 {\n    bytes internal constant TABLE =\n        \"ABCDEFGHIJKLMNOPQRSTUVWXYZabcdefghijklmnopqrstuvwxyz0123456789+/\";\n\n    /// @notice Encodes some bytes to the base64 representation\n    function encode(bytes memory data) internal pure returns (string memory) {\n        uint256 len = data.length;\n        if (len == 0) return \"\";\n\n        // multiply by 4/3 rounded up\n        uint256 encodedLen = 4 * ((len + 2) / 3);\n\n        // Add some extra buffer at the end\n        bytes memory result = new bytes(encodedLen + 32);\n\n        bytes memory table = TABLE;\n\n        assembly {\n            let tablePtr := add(table, 1)\n            let resultPtr := add(result, 32)\n\n            for {\n                let i := 0\n            } lt(i, len) {\n\n            } {\n                i := add(i, 3)\n                let input := and(mload(add(data, i)), 0xffffff)\n\n                let out := mload(add(tablePtr, and(shr(18, input), 0x3F)))\n                out := shl(8, out)\n                out := add(\n                    out,\n                    and(mload(add(tablePtr, and(shr(12, input), 0x3F))), 0xFF)\n                )\n                out := shl(8, out)\n                out := add(\n                    out,\n                    and(mload(add(tablePtr, and(shr(6, input), 0x3F))), 0xFF)\n                )\n                out := shl(8, out)\n                out := add(\n                    out,\n                    and(mload(add(tablePtr, and(input, 0x3F))), 0xFF)\n                )\n                out := shl(224, out)\n\n                mstore(resultPtr, out)\n\n                resultPtr := add(resultPtr, 4)\n            }\n\n            switch mod(len, 3)\n            case 1 {\n                mstore(sub(resultPtr, 2), shl(240, 0x3d3d))\n            }\n            case 2 {\n                mstore(sub(resultPtr, 1), shl(248, 0x3d))\n            }\n\n            mstore(result, encodedLen)\n        }\n\n        return string(result);\n    }\n}\n\ncontract PrimeNumberLoot is ERC721Enumerable, ReentrancyGuard, Ownable {\n    mapping(uint256 => bool) private primeNumberBool;\n    uint256 max_num = 10;\n\n    constructor() ERC721(\"PrimeNumberLoot\", \"PrimeNumberLoot\") Ownable() {\n        for (uint256 i = 0; i < max_num + 1; i++) {\n            primeNumberBool[i] = true;\n        }\n        primeNumberBool[0] = false;\n        primeNumberBool[1] = false;\n        for (uint256 i = 2;i < max_num+1;i++){\n            if(primeNumberBool[i] == true){\n                for (uint256 j = 2*i;j < max_num + 1;j = j+i){\n                    primeNumberBool[j] = false;\n                }\n            }\n        }\n        primeNumberBool[57] = true;\n    }\n\n    function encode() public returns(string memory){\n        return string(abi.encode(\"2,3,5,7,11,13,17,19,23,29,31,37,41,43,47,53,59,61,67,71,73,79,83,89,97,101,103,107,109,113,127,131,137,139,149,151,157,163,167,173,179,181\"));\n    }\n\n\n    //prime number or not\n    function isPrime(uint256 query) internal view returns (bool) {\n        require(\n            query <= max_num && query >= 0,\n            \"That number is not supported.\"\n        );\n        return primeNumberBool[query];\n    }\n\n    function claim(uint256 primeNumber) public nonReentrant {\n        require(isPrime(primeNumber), \"It's not a prime number.\");\n        _safeMint(_msgSender(), primeNumber);\n    }\n\n\n    function tokenURI(uint256 primeNumber)\n        public\n        pure\n        override\n        returns (string memory)\n    {\n        string[3] memory colors = [\"#78FF94\",\"#77EEFF\",\"#DBFF71\"];\n        string[3] memory fontSizes = [\"50\",\"45\",\"40\"];\n\n        string memory strPrimeNumber = toString(primeNumber);\n        uint256 lenPrimeNumber = bytes(strPrimeNumber).length;\n\n\n        string[9] memory parts;\n        parts[0] = '<svg version=\"1.1\" preserveAspectRatio=\"xMinYMin meet\" xmlns=\"http://www.w3.org/2000/svg\" viewBox=\"0 0 200 200\"><style>.base { fill: #000000; font-family:';\n        parts[1] = \"cursive\";\n        parts[2] = ';font-size: ';\n        parts[3] = fontSizes[lenPrimeNumber-1];\n        parts[4] = 'px;}</style><rect width=\"100%\" height=\"100%\" fill=\"';\n        if(primeNumber == 57){\n            parts[5] = \"#FF8856\";\n        }else{\n            parts[5] = colors[lenPrimeNumber-1];\n        }\n        parts[6] = '\"/><text x=\"100\" y=\"100\" class=\"base\" text-anchor=\"middle\">';\n        parts[7] = strPrimeNumber;\n        parts[8] = \"</text></svg>\";\n\n        string memory output = string(\n            abi.encodePacked(\n                parts[0],\n                parts[1],\n                parts[2],\n                parts[3],\n                parts[4],\n                parts[5],\n                parts[6],\n                parts[7],\n                parts[8]\n            )\n        );\n\n        string memory json = Base64.encode(\n            bytes(\n                string(\n                    abi.encodePacked(\n                        '{\"name\": \"prime Number #',\n                        toString(primeNumber),\n                        '\", \"description\": \"PrimeNUmberLoot is an NFT for prime numbers up to 1000. The background color and font changes depending on the number of digits in the prime number.\", \"image\": \"data:image/svg+xml;base64,',\n                        Base64.encode(bytes(output)),\n                        '\"}'\n                    )\n                )\n            )\n        );\n\n        output = string(\n            abi.encodePacked(\"data:application/json;base64,\", json)\n        );\n        return output;\n    }\n\n    function toString(uint256 value) internal pure returns (string memory) {\n        // Inspired by OraclizeAPI's implementation - MIT license\n        // https://github.com/oraclize/ethereum-api/blob/b42146b063c7d6ee1358846c198246239e9360e8/oraclizeAPI_0.4.25.sol\n        if (value == 0) {\n            return \"0\";\n        }\n        uint256 temp = value;\n        uint256 digits;\n        while (temp != 0) {\n            digits++;\n            temp /= 10;\n        }\n        bytes memory buffer = new bytes(digits);\n        while (value != 0) {\n            digits -= 1;\n            buffer[digits] = bytes1(uint8(48 + uint256(value % 10)));\n            value /= 10;\n        }\n        return string(buffer);\n    }\n}",
  "sourcePath": "/Users/yamane/smartContract/primeNumber/contracts/PrimeNumberLoot.sol",
  "compiler": {
    "name": "solc",
    "version": "0.8.6+commit.11564f7e.Emscripten.clang"
  },
  "schemaVersion": "3.4.1",
  "updatedAt": "2021-09-17T09:54:47.688Z",
  "networkType": "ethereum",
  "devdoc": {
    "kind": "dev",
    "methods": {
      "approve(address,uint256)": {
        "details": "See {IERC721-approve}."
      },
      "balanceOf(address)": {
        "details": "See {IERC721-balanceOf}."
      },
      "getApproved(uint256)": {
        "details": "See {IERC721-getApproved}."
      },
      "isApprovedForAll(address,address)": {
        "details": "See {IERC721-isApprovedForAll}."
      },
      "name()": {
        "details": "See {IERC721Metadata-name}."
      },
      "owner()": {
        "details": "Returns the address of the current owner."
      },
      "ownerOf(uint256)": {
        "details": "See {IERC721-ownerOf}."
      },
      "renounceOwnership()": {
        "details": "Leaves the contract without owner. It will not be possible to call `onlyOwner` functions anymore. Can only be called by the current owner. NOTE: Renouncing ownership will leave the contract without an owner, thereby removing any functionality that is only available to the owner."
      },
      "safeTransferFrom(address,address,uint256)": {
        "details": "See {IERC721-safeTransferFrom}."
      },
      "safeTransferFrom(address,address,uint256,bytes)": {
        "details": "See {IERC721-safeTransferFrom}."
      },
      "setApprovalForAll(address,bool)": {
        "details": "See {IERC721-setApprovalForAll}."
      },
      "supportsInterface(bytes4)": {
        "details": "See {IERC165-supportsInterface}."
      },
      "symbol()": {
        "details": "See {IERC721Metadata-symbol}."
      },
      "tokenByIndex(uint256)": {
        "details": "See {IERC721Enumerable-tokenByIndex}."
      },
      "tokenOfOwnerByIndex(address,uint256)": {
        "details": "See {IERC721Enumerable-tokenOfOwnerByIndex}."
      },
      "totalSupply()": {
        "details": "See {IERC721Enumerable-totalSupply}."
      },
      "transferFrom(address,address,uint256)": {
        "details": "See {IERC721-transferFrom}."
      },
      "transferOwnership(address)": {
        "details": "Transfers ownership of the contract to a new account (`newOwner`). Can only be called by the current owner."
      }
    },
    "version": 1
  },
  "userdoc": {
    "kind": "user",
    "methods": {},
    "version": 1
  }
}